:020000040800F2
:1000000000800020B9220008C9060008CB060008BD
:10001000CD060008CF060008D10600080000000049
:10002000000000000000000000000000D3060008EF
:10003000D506000800000000D7060008D906000811
:1000400009230008092300080923000809230008E0
:1000500009230008092300080923000809230008D0
:1000600009230008092300080923000809230008C0
:1000700009230008092300080923000809230008B0
:1000800009230008092300080923000809230008A0
:1000900000000000092300080923000809230008C4
:1000A0000923000809230008092300080923000880
:1000B0000923000809230008092300080923000870
:1000C0000923000809230008092300080923000860
:1000D0000923000809230008092300080923000850
:1000E0000923000809230008092300080923000840
:1000F0000923000800000000000000000923000898
:10010000092300080923000809230008092300081F
:10011000092300080923000809230008092300080F
:1001200009230008092300080923000809230008FF
:0801300009230008092300085F
:1001380053B94AB9002908BF00281CBF4FF0FF3146
:100148004FF0FF3000F00CB8ADF1080C6DE904CEAB
:1001580002F004F9DDF804E0DDE9022304B0704799
:10016800704700BF10B5054C237833B9044B13B161
:100178000448AFF300800123237010BD1000002055
:10018800000000002026000808B5034B1BB10349F6
:100198000348AFF3008008BD0000000014000020F1
:1001A8002026000870B588B00024039404940594B0
:1001B800069407944FF0B043DA6C42F00102DA6417
:1001C800DA6C02F001020292029ADA6C42F0020240
:1001D800DA64DA6C02F002020192019ADA6C42F0F7
:1001E8000402DA64DB6C03F004030093009B134EF3
:1001F80022464FF40071304600F014FD224640F2CA
:100208000D414FF0904000F00DFD4FF40073039343
:10021800012504950594069403A9304600F030FCA6
:1002280040F20D43039304950594069403A94FF0F7
:10023800904000F025FC08B070BD00BF00040048E5
:1002480072B6FEE708B51148114B03604FF0404302
:10025800436000238360C360036104224261037624
:10026800437683760122C26180F82030436283623C
:1002780080F82C3003634363836380F83C30C364A5
:1002880000F07CFA00B908BDFFF7DAFF780100201A
:100298000024014008B51148114B036040F614636F
:1002A8004360002383600122C2600361436183616C
:1002B800C361036200F0BBFC50B90021074800F09D
:1002C80014FD38B90021054800F03DFD20B908BDEE
:1002D800FFF7B6FFFFF7B4FFFFF7B2FF24010020D6
:1002E8000058004008B51548154B03604FF4E1333A
:1002F800436000238360C36003610C224261836111
:10030800C36103624362836201F00EFF70B900218A
:100318000A4801F082FF58B90021084801F0A2FFFD
:1003280040B9064801F05AFF30B908BDFFF788FF09
:10033800FFF786FFFFF784FFFFF782FF2C000020FE
:100348000038014008B50F480F4B03604FF4827323
:100358004360002383604FF44072C26003614361CD
:100368004FF400728261C3610362436283620722B1
:10037800C26203630823436301F0D0FB00B908BDE0
:10038800FFF75EFFC00000200038004000B59BB0BA
:100398004822002108A801F0B4FF00230293039328
:1003A800049305930693079317490A6822F4C062D9
:1003B80042F480620A600A6802F4C0620192019AFB
:1003C800222208924FF480720C920122109240224D
:1003D8000D92119360221292139308A800F008FE60
:1003E80070B94F230293002103910491059106915E
:1003F800079102A801F02EF920B91BB05DF804FBA3
:10040800FFF71EFFFFF71CFF0004005808B500F0B7
:100418008DF9FFF7BBFFFFF7C5FEFFF713FFFFF7E7
:1004280039FFFFF75FFFFFF78DFFFEE7704700001A
:1004380000B589B0002303930493059306930793AB
:100448000268124B9A4202D009B05DF804FB4FF0E3
:10045800B0431A6E42F400721A661A6E02F4007201
:100468000292029ADA6C42F00202DA64DB6C03F060
:1004780002030193019B42F218030393032304939D
:1004880003A9034800F0FCFADEE700BF002401409E
:10049800000400482DE9F04196B00446002111916E
:1004A8001291139114911591382203A801F029FF94
:1004B8002268254B9A4202D016B0BDE8F08180230D
:1004C80003934FF44023099303A801F005FA002889
:1004D80037D14FF0B044E36C43F00103E364E36CBD
:1004E80003F001030293029BE36C43F00203E3640D
:1004F800E36C03F002030193019B4FF40048CDF82D
:1005080044801227129700251395149504261596F2
:1005180011A94FF0904000F0B3FACDF8448012973B
:1005280013951495159611A9084800F0A9FAA36D1A
:1005380043F48003A365A36D03F480030093009B39
:10054800BAE7FFF77DFEC4E7005800400004004802
:1005580070B598B004460021139114911591169125
:100568001791382205A801F0CCFE22682E4B9A423A
:1005780001D018B070BD102305934FF40073089391
:1005880005A801F0A9F900284AD14FF0B0439A6DA7
:1005980042F480429A659A6D02F480420492049A69
:1005A800DA6C42F00202DA64DA6C02F002020392B8
:1005B800039ADA6C42F00102DA64DA6C02F00102A2
:1005C8000292029ADA6C42F00402DA64DB6C03F0FD
:1005D80004030193019B4FF4804313930225149560
:1005E8000024159416940526179613A90F4800F0B1
:1005F80047FA4FF4007313931495159416941796AD
:1006080013A94FF0904000F03BFA139514951594F8
:1006180016940323179313A9054800F031FAA8E7A5
:10062800FFF70EFEB1E700BF0038004000040048A5
:100638000008004810B596B00446002111911291A7
:10064800139114911591382203A801F05AFE2268DB
:10065800194B9A4201D016B010BD012303934FF4F1
:100668004033049303A801F037F908BB4FF0B043B7
:100678001A6E42F480421A661A6E02F4804202929E
:10068800029ADA6C42F00202DA64DB6C03F00203CD
:100698000193019BC0231193022312930023139308
:1006A80014930723159311A9044800F0E9F9D2E738
:1006B800FFF7C6FDDAE700BF003801400004004834
:1006C800FEE7FEE7FEE7FEE7FEE770477047704784
:1006D80008B500F041F808BD70470000114B1B78C1
:1006E8000BB90120704710B5044600F071FC0D4BA2
:1006F8001A784FF47A73B3FBF2F3B0FBF3F000F01F
:10070800ABF968B90F2C01D901200AE00022214673
:100718004FF0FF3000F090F9034B1C60002000E020
:10072800012010BD040000200800002010B503209F
:1007380000F070F900F04CFC064B18600F20FFF732
:10074800CDFF10B10124204610BD0446FFF76EFE10
:10075800F9E700BF00000020034B1B78034A11682B
:100768000B441360704700BF04000020DC01002028
:10077800014B1868704700BFDC01002030B583B01A
:1007880000230193002800F006810446836DBBB165
:100798002268936813F0805F1FD1936823F0104399
:1007A80023F0170343F0805393607C4B1B689B092D
:1007B8007B4AA2FB03239B0901335B00019309E0F9
:1007C800FFF736FE0023E36584F85430E0E7019B29
:1007D800013B0193019B002BF9D12268936813F028
:1007E800805F40F09A80A36D43F01003A365E36D2A
:1007F80043F00103E3650120936813F0040300D07C
:100808000123A16D11F0100F40F0BE80002B40F0C5
:10081800BB80A36D23F4817343F00203A36593683F
:1008280013F0010F4FD1A368217E43EA8133617E23
:1008380043EAC133A57E43EA4533216B09B14FF43E
:1008480080510B43E1680B432169002967DB4FF4B2
:1008580000110B4394F82C1043EA410394F820103C
:1008680001295FD0616A21B101F4E071A56A2943C9
:100878000B43D16821F4FE3121F4FF711943D16093
:10088800636803F04043E26C1A4394F83C10012972
:1008980055D021680D69434B2B4013430B616368A6
:1008A800B3F1404F0FD0B3F1804F0CD0B3F1004FEC
:1008B80009D03D49D1F8082722F4701203F47013C7
:1008C8001343C1F808372168636B4A6922F00702AD
:1008D80013434B612268A16B536923F0700343EA09
:1008E800011353612369002B33D12268936A63F0A3
:1008F8000F03936223685B6903F00703626B9A42F4
:1009080039D0A36D23F0120343F01003A365E36D00
:1009180043F00103E36501203BE000206CE721F090
:10092800004196E715B943F480339BE7A16D41F088
:100938002001A165E16D41F00101E16592E7216CBB
:100948000B43616C0B43A16C0B431A4342F0010249
:100958009FE7B3F5001FCDD121688B6AE369013B9E
:100968009B0003F01C036FF00F0202FA03F3226EE0
:1009780013438B62BEE70023E365A36D23F00303F3
:1009880043F00103A36504E0A36D43F01003A365DE
:10099800012003B030BD0120FBE700BF00000020AC
:1009A800632D3E0502FCFF1F00200140002808DBE4
:1009B8000901C9B200F1604000F5614080F80013F8
:1009C800704700F00F000901C9B2014B1954704774
:1009D80014ED00E000B500F00700C0F1070CBCF111
:1009E800040F28BF4FF0040C031D062B0FD9C31E9C
:1009F8004FF0FF3E0EFA0CF021EA000199400EFA82
:100A080003FE22EA0E0241EA02005DF804FB00231D
:100A1800EEE70000074AD36823F4E0631B041B0CCD
:100A2800000200F4E060034343F0BF6343F4003383
:100A3800D360704700ED00E010B50446054BD86858
:100A4800C0F30220FFF7C6FF01462046FFF7AEFFBE
:100A580010BD00BF00ED00E00138B0F1807F0BD27F
:100A68004FF0E0235861054AF02182F82310002056
:100A7800986107221A6170470120704700ED00E075
:100A880070B5002369E085685E000324B44025EA58
:100A98000405CC68B4402C438460456825EA0C05FD
:100AA8004C68C4F300149C402C43446066E0DD08A5
:100AB800083550F8254003F0070C4FEA8C0C4FF02E
:100AC8000F0E0EFA0CFE24EA0E0E0C6904FA0CF452
:100AD80044EA0E0440F8254067E0022400E00024C0
:100AE80004FA0EF42C430CF1020C4B4D45F82C4043
:100AF8004A4C2568D44325EA0206D1F804C01CF400
:100B0800801F01D042EA0506444D2E606D6804EA54
:100B18000506D1F804C01CF4001F01D042EA0506FE
:100B28003E4D6E60D5F8805004EA0506D1F804C041
:100B38001CF4803F01D042EA0506384DC5F88060B4
:100B4800D5F884502C404E6816F4003F01D042EA94
:100B58000504324AC2F8844001330A6832FA03F4C1
:100B680058D04FF0010C0CFA03FC1CEA0202F3D037
:100B78004C6804F00304013C012C84D94C6804F04F
:100B88000304032C0CD0C4685D004FF0030C0CFA6E
:100B980005FC24EA0C0C8C68AC4044EA0C04C460E4
:100BA8004C6804F00304022C81D004684FEA430E19
:100BB8004FF0030C0CFA0EFC24EA0C0C4C6804F001
:100BC800030404FA0EF444EA0C0404604C6814F4B8
:100BD800403FC1D04FEA930C0CF102050E4C54F87B
:100BE800255003F0030E4FEA8E0E072404FA0EF484
:100BF80025EA0405B0F1904F3FF471AF084CA042CC
:100C080006D004F58064A0423FF467AF072467E785
:100C1800012465E770BD00BF0000014000080058CE
:100C2800000400480AB1816170478162704700285A
:100C380059D010B5044690F84130002B43D02423F6
:100C480084F841302268136823F001031360636855
:100C5800226823F0706313612268936823F40043C9
:100C68009360E368012B33D0A368226843F40443FC
:100C78009360E368022B31D02268536843F0007315
:100C880043F4004353602268D36823F40043D360DD
:100C9800236962691343A169226843EA0123D36087
:100CA800E369216A22680B4313602268136843F0E2
:100CB8000103136000206064202384F8413020631E
:100CC80084F8420010BD80F84030FFF7E3FBB6E738
:100CD800A368226843F400439360CAE723684FF48B
:100CE80000625A60C8E701207047034690F8412027
:100CF800D2B2202A23D190F84020012A21D0012203
:100D080080F84020242280F841200068026822F000
:100D1800010202601868026822F4805202601868B2
:100D280002681143016019680A6842F001020A600A
:100D3800202283F84120002083F8400070470220D9
:100D4800704702207047034690F84120D2B2202A0B
:100D580021D190F84020012A1FD0012280F840209C
:100D6800242280F841200068026822F00102026013
:100D78001868026822F4706242EA01220260196867
:100D88000A6842F001020A60202283F8412000200C
:100D980083F8400070470220704702207047000027
:100DA800024A136843F480731360704700040058C4
:100DB800024B186800F4C060704700BF0004005878
:100DC80030B589B004468C462A4B93E80300069058
:100DD800ADF81C1003F1080292E803000490ADF886
:100DE800141001AD103393E8070085E80700BCF53F
:100DF800007F07D0002314E008AA02EB830353F80E
:100E08001C5C1EE00023022B08D808AA02EB430250
:100E180032F8082CA242EFD20133F4E7002510E0A3
:100E28000133022B0CD808AA02EB430232F8102C2B
:100E3800A242F5D308AA02EB830353F81C5C00E036
:100E480000250D4A136823F007032B431360FFF7AF
:100E58008FFC0446084B1B6803F00703AB4206D01F
:100E6800FFF786FC001B0228F4D9032000E00020CD
:100E780009B030BD382600080040005810B5C0F34E
:100E880003100C4B53F820404FF0B043D3F808310F
:100E980003F00F03084A52F82330B4FBF3F4FFF7CA
:100EA80087FF0146054BA3FB0434A00CFFF788FF1E
:100EB80010BD00BF54260008B426000883DE1B437B
:100EC8004FF0B0439968DB6803F0030311F00C019D
:100ED8000AD00C2906D0042947D008293BD0002283
:100EE800104626E0012BF6D14FF0B0431B6813F0F3
:100EF80008030DD04FF0B0431B6813F0080324D14A
:100F08004FF0B042D2F894202E4A52F823200EE037
:100F18004FF0B042126812F0080F12D14FF0B043F0
:100F2800D3F89430C3F30323264A52F82320D1B1CF
:100F380000204FF0B0439B6803F00C030C2B1AD031
:100F480070474FF0B0421268EEE74FF0B0431B68AD
:100F5800C3F30313D8E74FF0B0431A6812F48012B2
:100F680006D11948E5E71046E3E700221748E0E70D
:100F780000221648DDE74FF0B043DB6803F00303B7
:100F8800022B09D0032B08D14FF0B0431B6813F490
:100F9800801F15D10C4A00E00C4A4FF0B041CB68D5
:100FA800C3F3062303FB02F2CB68C3F30213013336
:100FB800B2FBF3F2C868400F0130B2FBF0F0BFE7B4
:100FC800024AEAE7542600080048E8010024F40031
:100FD80008B5FFF775FF4FF0B0439B68C3F30313E1
:100FE800024A52F82330B0FBF3F008BDB4260008DB
:100FF800002800F01183F8B504464FF0B0439D680F
:1010080005F00C05DE6806F00306036813F0200FF0
:101018002AD0002D65D00C2D61D0236A002B00F05A
:10102800BF804FF0B042136843F001031360FFF72D
:101038009FFB07464FF0B0431B6813F0020F00F008
:10104800A7804FF0B0431A6842F008021A601A6885
:1010580022F0F002A16A0A431A60616A5A6822F40F
:101068007F4242EA01225A60236813F0010F00F020
:10107800B580082D00F0AE800C2D00F0A8804FF050
:10108800B042136823F48013A1680B4313606368AC
:10109800B3F5803F00F0C480B3F5041F00F0C580AD
:1010A8004FF0B0431A6822F480321A601A6822F4AA
:1010B80000121A606368002B00F0C280FFF758FB2B
:1010C80007464FF0B0431B6813F4003F40F086809A
:1010D800FFF74EFBC01B6428F3D90320A9E2012EB9
:1010E8009BD1236A002B00F09982A06A4FF0B0438D
:1010F8001B6813F0080F29D04FF0B0431B6803F0AA
:10110800F00398422AD9FFF7B9FE002840F08882F8
:101118004FF0B0431A6842F008021A601A6822F0C9
:10112800F002A16A0A431A60616A5A6822F47F428F
:1011380042EA01225A60FFF74BFFBA4B1860BA4BDC
:101148001868FFF7CBFA00288ED072E24FF0B04350
:10115800D3F894301B0903F0F003D2E74FF0B04303
:101168001A6842F008021A601A6822F0F002A16AAE
:101178000A431A60616A5A6822F47F4242EA0122ED
:101188005A60A06AFFF77AFE0028D4D0012050E206
:10119800FFF7EEFAC01B02287FF64CAF032048E2A7
:1011A8004FF0B042136823F001031360FFF7E0FA31
:1011B80007464FF0B0431B6813F0020F3FF454AFDB
:1011C800FFF7D6FAC01B0228F3D9032031E2032E19
:1011D8007FF455AF6368002B00F02482236813F076
:1011E800020F56D0042D3DD00C2D39D02369002B89
:1011F80000F08A804FF0B042136843F480731360A4
:10120800FFF7B6FA06464FF0B0431B6813F4806F39
:1012180036D1FFF7ADFA801B0228F4D9032008E283
:10122800136843F48033136044E74FF0B0431A68FF
:1012380042F400121A601A6842F480321A6039E7E0
:10124800FFF796FA07464FF0B0431B6813F4003FC8
:10125800C4D0FFF78DFAC01B6428F4D90320E8E155
:10126800022EC3D12369002B00F0DE8161694FF0A3
:10127800B042536823F0FE4343EA0163536008E039
:1012880061694FF0B042536823F0FE4343EA0163BB
:101298005360236813F0080F7ED0A369002B62D037
:1012A8004FF0B043D3F89430E16903F01002914253
:1012B80011D003F00302022A00F0B88113F0010FE5
:1012C80038D14FF0B042D2F8943023F01003E169DE
:1012D8000B43C2F894304FF0B042D2F8943043F048
:1012E8000103C2F89430FFF743FA06464FF0B043C3
:1012F800D3F8943013F0020F4ED1FFF739FA801B60
:101308001128F3D9032094E14FF0B042136823F475
:1013180080731360FFF72CFA06464FF0B0431B6842
:1013280013F4806FB5D0FFF723FA801B0228F4D995
:1013380003207EE14FF0B042D2F8943023F001034D
:10134800C2F89430FFF714FA06464FF0B043D3F8CA
:10135800943013F0020FB4D0FFF70AFA801B11285B
:10136800F3D9032065E14FF0B042D2F8943023F06E
:101378000103C2F89430FFF7FBF906464FF0B0437B
:10138800D3F8943013F0020F06D0FFF7F1F9801B61
:101398001128F3D903204CE1236813F0040F00F05F
:1013A800B880224B1B6813F4807F10D1FFF7F8FC3C
:1013B800FFF7DEF906461D4B1B6813F4807F06D144
:1013C800FFF7D6F9801B0228F5D9032031E1E3683D
:1013D800002B68D0852B01D0052B07D14FF0B042E8
:1013E800D2F8903043F00403C2F89030FFF7C0F908
:1013F80006464FF0B042D2F8903043F00103C2F8ED
:1014080090304FF0B043D3F8903013F0020F0FD163
:10141800FFF7AEF9801B41F288339842F1D90320D7
:1014280007E100BF00000020080000200004005869
:10143800E368812B01D0852B1AD1FFF799F906466D
:101448004FF0B042D2F8903043F08003C2F89030A9
:101458004FF0B043D3F8903013F4006F59D1FFF731
:1014680087F9801B41F288339842F1D90320E0E0E4
:10147800FFF77EF906464FF0B042D2F8903023F0DD
:101488008003C2F890304FF0B043D3F8903013F493
:10149800006F3ED0FFF76CF9801B41F28833984209
:1014A800F1D90320C5E0FFF763F906464FF0B042D3
:1014B800D2F8903023F08003C2F890304FF0B04358
:1014C800D3F8903013F4006F08D0FFF751F9801B60
:1014D80041F288339842F1D90320AAE0FFF748F98E
:1014E80006464FF0B042D2F8903023F00103C2F81C
:1014F80090304FF0B043D3F8903013F0020F08D07B
:10150800FFF736F9801B41F288339842F1D903205E
:101518008FE0E36A002B00F08B800C2D60D0022B4B
:1015280016D04FF0B042136823F080731360FFF7B2
:101538001FF904464FF0B0431B6813F0007F48D1F1
:101548004FF0B042D168414B0B40D360002070E0AF
:101558004FF0B042136823F080731360FFF708F967
:1015680005464FF0B0431B6813F0007F2AD14FF0B7
:10157800B042D36836491940236B606B0343A06BB4
:1015880043EA0023E06B0343206C0343606C03438E
:101598001943D160136843F080731360D36843F034
:1015A8008053D360FFF7E4F804464FF0B0431B685C
:1015B80013F0007F3ED1FFF7DBF8001B0A28F4D9AF
:1015C800032036E0FFF7D4F8401B0A28C9D90320C6
:1015D8002FE0FFF7CDF8001B0A28ABD9032028E03D
:1015E800012B29D04FF0B043DB6803F00301226BD5
:1015F800914223D103F07002616B8A4220D103F437
:10160800FE42A16BB2EB012F1CD103F06043626C68
:10161800934219D100200CE001207047012008E016
:10162800012006E0012004E0012002E0012000E0A2
:101638000020F8BD0020FCE70120FAE70120F8E7C8
:101648000120F6E70120F4E70120F2E7FCFFFEEEB7
:101658008C80C111002800F0048170B50C46054645
:10166800824B1B6803F007038B4227D32B6813F0C8
:10167800020F39D12B6813F0400F4DD12B6813F0AE
:10168800040F65D12B6813F0080F79D12B6813F07C
:10169800010F00F0C1806B68022B00F08B80032BD8
:1016A80000F09080002B40F095804FF0B042126817
:1016B80012F0020F40F094800120D1E06B4A1368C9
:1016C80023F007030B431360FFF752F80646674BF6
:1016D8001B6803F00703A342C8D0FFF749F8801B33
:1016E8000228F4D90320BBE0AB684FF0B0418A6808
:1016F80022F0F00213438B60FFF73AF806464FF0EA
:10170800B0439B6813F4803FB4D1FFF731F8801BD6
:101718000228F4D90320A3E069694FF0B042D2F857
:10172800083123F00F0343EA1113C2F80831FFF719
:101738001FF806464FF0B043D3F8083113F4803F42
:101748009CD1FFF715F8801B0228F3D9032087E006
:10175800EB684FF0B0418A6822F4E06213438B6073
:10176800FFF706F806464FF0B0439B6813F4003FB6
:1017780088D1FEF7FDFF801B0228F4D903206FE013
:1017880029694FF0B042936823F4605343EAC103D8
:101798009360FEF7EDFF06464FF0B0439B6813F4E5
:1017A800802F7FF473AFFEF7E3FF801B0228F3D985
:1017B800032055E04FF0B042126812F4003F0FD1F9
:1017C80001204DE04FF0B042126812F0007F07D1BF
:1017D800012045E04FF0B042126812F4806F42D009
:1017E8004FF0B0418A6822F0030213438B60FEF782
:1017F800BFFF06464FF0B0439B6803F00C036A68CE
:10180800B3EB820F08D0FEF7B3FF801B41F2883399
:101818009842EFD9032023E0144B1B6803F0070319
:10182800A34215D9114A136823F007032343136011
:10183800FEF79EFF05460D4B1B6803F00703A34206
:1018480006D0FEF795FF401B0228F4D9032007E0D5
:10185800FFF7BEFB064B1860064B1868FEF73EFF05
:1018680070BD012070470120FAE700BF0040005812
:10187800000000200800002008B5FFF7A9FB4FF082
:10188800B0439B68C3F30223024A52F82330D8407E
:1018980008BD00BF9426000808B5FFF799FB4FF074
:1018A800B0439B68C3F3C223024A52F82330D8409E
:1018B80008BD00BF942600084FF0B041D1F8883029
:1018C800020902F47F2223EA0203000100F47F20C8
:1018D8000343C1F88830704770B50446036813F4B1
:1018E800803F40F0AA800025236813F0010F0AD03A
:1018F80062684FF0B041D1F8883023EA124392B2BF
:101908001343C1F88830236813F0020F0AD0A26885
:101918004FF0B041D1F8883023EA124392B2134312
:10192800C1F88830236813F0200F09D023694FF0DD
:10193800B041D1F8882022F440621343C1F88830BE
:10194800236813F4007F0CD0206A4FF0B041D1F81F
:101958008830020C120423EA020343EA0043C1F868
:101968008830236813F4806F0CD0606A4FF0B04160
:10197800D1F88830020C120423EA020343EA004338
:10198800C1F88830236813F4006F0CD0A06A4FF0B8
:10199800B041D1F88830020C120423EA020343EA6A
:1019A8000043C1F88830236813F0400F40F09D8051
:1019B800236813F0800F40F09C80236813F4807F25
:1019C80040F09B80236813F0100F0ED0E3684FF0AF
:1019D800B041D1F8882022F440721343C1F888300E
:1019E800E368B3F5807F00F08C80236813F4004F20
:1019F8000FD0236B4FF0B041D1F8882022F040423D
:101A08001343C1F88830236B1BB9CB6843F080734C
:101A1800CB60236813F4804F0DD0E36A4FF0B041D8
:101A2800D1F8882022F040521343C1F88830E36A85
:101A3800B3F1005F6AD0284670BDFFF7B1F9FEF731
:101A480097FE0546344B1B6813F4807F06D1FEF7DA
:101A58008FFE401B0228F5D9032500E00025002D44
:101A68007FF442AF4FF0B043D3F8903003F44073A3
:101A7800626B9A4224D04FF0B043D3F8902022F4FE
:101A88004072D3F8901041F48031C3F89010D3F825
:101A9800901021F48031C3F89010C3F8902012F010
:101AA800020F0FD1002D7FF41FAF636B4FF0B041D1
:101AB800D1F8902022F440721343C1F8903013E714
:101AC8000022ECE7FEF754FE06464FF0B043D3F889
:101AD800903013F0020FE5D1FEF74AFE801B41F269
:101AE80088339842F1D90325DCE76069FFF7E4FE03
:101AF8005EE7A069FFF7E0FE5FE7E069FFF7DCFE5D
:101B080060E7CB6843F08073CB606EE7CB6843F443
:101B18008033CB608FE700BF00040058002800F036
:101B28008E8010B50446436A33B94368B3F5827FA3
:101B380005D00023C36102E000230361436194F8E8
:101B48005D30002B5AD0022384F85D302268136878
:101B580023F040031360E368B3F5E06F54D9002223
:101B6800B3F5706F04D0B3F5E06F01D00023A36222
:101B7800636803F48273A16801F404410B4321698B
:101B880001F002010B43616901F001010B43A169F6
:101B980001F400710B43E16901F038010B43216A3C
:101BA80001F080010B43A16A01F4005120680B4346
:101BB8000360A36AB3F5005F29D0638B03F00403C5
:101BC800616A01F010010B43616B01F008010B43DE
:101BD800E16801F470610B4321681A434A60A36A03
:101BE800B3F5005F27D02268D36923F40063D3617B
:101BF80000202066012384F85D3010BD84F85C3035
:101C08002046FEF7A5FC9EE74FF48052A8E7236B19
:101C18002BB9E368B3F5E06F0AD902232363236B7A
:101C2800022BCAD121680B6843F400630B60C4E738
:101C380001232363F3E72368A28D1A61D3E7012008
:101C48007047000070B50446016883680269134351
:101C580042691343C269134308689D4A02401A4304
:101C68000A602268536823F44053E1680B435360C9
:101C7800A1692268974B9A4201D0236A1943936855
:101C880023F06E4323F430630B4393602268D36AD6
:101C980023F00F03616A0B43D36223688E4A934291
:101CA8001CD08E4A934231D08A4A93424BD010229C
:101CB80088498B4268D0E069B0F5004F00F0A580F4
:101CC800082A00F21F81DFE812F0D300F500D100E6
:101CD8001D01F8001D011D011D01FB004FF0B04260
:101CE800D2F8882002F0030242F44032A2F54032D2
:101CF800032A09D8DFE802F002043C060122D7E7EC
:101D08000422D5E70822D3E71022D1E74FF0B042EA
:101D1800D2F8882002F00C0242F44022A2F54022B8
:101D28000C2A0ED8DFE802F0070D0D0D090D0D0D78
:101D3800260D0D0D0B000022BAE70422B8E7082291
:101D4800B6E71022B4E74FF0B042D2F8882002F488
:101D58004062B2F5006F0FD005D87AB1B2F5806F46
:101D68000ED10422A4E7B2F5406F0BD108229FE7F9
:101D780002229DE702229BE7022299E7002297E7C9
:101D8800102295E7102293E7082A00F29C80DFE8EA
:101D980002F0089A3A9A379A9A9A05004FF4004046
:101DA80004E0FFF769FD002800F08F80626A4C4B61
:101DB80033F81220B0FBF2F3656805EB4501994250
:101DC80000F29480B3EB053F00F292800026334680
:101DD8003146FEF7ADF9090241EA106100026B08CD
:101DE800C0182A46334641F10001FEF7A1F9A0F5D3
:101DF80040723C4B9A427DD82368D860304650E008
:101E0800FFF75EF8CFE73848D0E7082A74D8DFE84C
:101E180002F0072705732A7373730B00324803E037
:101E2800FFF72AFD002869D0626A2D4B33F812307B
:101E3800B0FBF3F06268530803EB4003B3FBF2F323
:101E4800A3F110014FF6EF72914259D89AB222F0DD
:101E58000F02C3F3420313432268D360002020E03B
:101E6800FFF71AFDDEE7FFF72BF8DBE71E4803E074
:101E7800FFF702FD002847D0626A194B33F8123089
:101E8800B0FBF3F0636800EB5300B0FBF3F0A0F194
:101E980010024FF6EF739A4238D8236880B2D860A0
:101EA80000200123A4F86A30A4F86830002363678F
:101EB800A36770BDFFF7F0FCDCE7FFF701F8D9E78F
:101EC8004FF40040D8E70120EBE70020E9E700BF26
:101ED800F369FFCF00800040003801400044004013
:101EE800F4260008FFFC0F000024F4000120D8E7C6
:101EF8000120D6E70120D4E70120D2E70020D0E76F
:101F08000120CEE70120CCE70020CAE70120C8E77E
:101F1800836A13F0010F06D00268536823F4003374
:101F2800C16A0B435360836A13F0020F06D002683C
:101F3800536823F48033016B0B435360836A13F0B7
:101F4800040F06D00268536823F48023416B0B43C7
:101F58005360836A13F0080F06D00268536823F4AD
:101F68000043816B0B435360836A13F0100F06D054
:101F78000268936823F48053C16B0B439360836AB0
:101F880013F0200F06D00268936823F40053016C05
:101F98000B439360836A13F0400F0AD002685368BA
:101FA80023F48013416C0B435360436CB3F5801FDB
:101FB8000BD0836A13F0800F06D00268536823F4AD
:101FC8000023C16C0B43536070470268536823F4C5
:101FD800C003816C0B435360EBE72DE9F8430546DA
:101FE8000F4616469946DDF820802B68DC6937EAEB
:101FF80004040CBF01240024B44257D1B8F1FF3FB8
:10200800F3D0FEF7B5FBA0EB090040452FD8B8F197
:10201800000F2CD02B681A6812F0040FE5D0DA698B
:1020280012F4006FE1D04FF400621A622A6852E895
:10203800003F23F4D07342E800310029F6D12A6822
:1020480002F1080353E8003F23F00103083242E895
:1020580000310029F3D12023C5F88830C5F88C3029
:10206800C5F89030002385F8843003201FE02A68E3
:1020780052E8003F23F4D07342E800310029F6D13A
:102088002A6802F1080353E8003F23F001030832ED
:1020980042E800310029F3D12023C5F88830C5F87B
:1020A8008C30002385F88430032000E00020BDE850
:1020B800F88330B583B004460023C0F89030FEF7AB
:1020C80057FB05462268126812F0080F10D12368E2
:1020D8001B6813F0040F19D12023C4F88830C4F802
:1020E8008C300020E066206784F8840003B030BD9F
:1020F8006FF07E430093034600224FF40011204600
:10210800FFF76BFF0028E2D00320EFE76FF07E4374
:1021180000932B4600224FF480012046FFF75DFF15
:102128000028D9D00320E1E778B310B50446D0F8E9
:1021380088300BB32423C4F888302268136823F04E
:10214800010313602046FFF77DFD012813D0A36A21
:10215800BBB92268536823F490435360226893689C
:1021680023F02A0393602268136843F00103136085
:102178002046FFF79EFF10BD80F88430FEF75AFA1C
:10218800D8E72046FFF7C4FEE3E7012070470000C8
:10219800436E2BB90123A0F86A30A0F86830704765
:1021A80030B403689A68C2F342629968490F094DCE
:1021B8006B5CDB00084C615C93FBF1F3A0F86A30C0
:1021C800AB5CDB00A25C93FBF2F3A0F8683030BC98
:1021D800704700BF142700080C27000890F88430C7
:1021E800012B18D0012380F884302423C0F88830CC
:1021F80003681A68196821F00101196022F0005279
:102208000023436601680A602022C0F8882080F80D
:102218008430184670470220704738B590F88430EB
:10222800012B1DD00446012380F884302423C0F8F4
:10223800883003681D681A6822F001021A60026873
:10224800936823F0604319439160FFF7A1FF236867
:102258001D602023C4F88830002084F8840038BD2D
:102268000220FCE738B590F88430012B1DD00446D5
:10227800012380F884302423C0F8883003681D685F
:102288001A6822F001021A600268936823F06063FA
:1022980019439160FFF77CFF23681D602023C4F871
:1022A8008830002084F8840038BD0220FCE7000054
:1022B8000D488546FEF710FA0C480D490D4A0023D3
:1022C80002E0D458C4500433C4188C42F9D30A4AE3
:1022D8000A4C002301E013600432A242FBD300F051
:1022E80019F8FEF793F8FEE70080002000000020B0
:1022F800100000203827000810000020E00100200E
:10230800FEE702440346934200D1704703F8011BDD
:10231800F9E7000070B50D4D0D4C641BA4100026A4
:10232800A64209D10B4D0C4C00F076F9641BA410A1
:102338000026A64205D170BD55F8043B98470136E2
:10234800EEE755F8043B98470136F2E728270008DE
:1023580028270008282700082C2700082DE9F0471F
:10236800089D0C46002B4ED194468C458646B2FA01
:1023780082F262D94AB1C2F12003914020FA03F3F4
:102388000CFA02FC194300FA02FE4FEA1C471FFA36
:102398008CF6B1FBF7F44FEA1E4307FB141143EA2E
:1023A800014304FB06F199420AD91CEB030304F12B
:1023B800FF3080F01281994240F20F81023C634461
:1023C800591A1FFA8EF3B1FBF7F007FB101143EA15
:1023D800014300FB06F69E420AD91CEB030300F1F9
:1023E800FF3180F0FC809E4240F2F980634402385D
:1023F8009B1B40EA044000211DB1D3400022C5E9DF
:102408000032BDE8F0878B4205D90DB1C5E900015E
:1024180000210846F5E7B3FA83F1002946D1A34223
:1024280002D39042C0F0F080861A64EB03030120C7
:10243800002DE6D0C5E90063E3E7002A40F090806C
:10244800A1EB0C044FEA1C481FFA8CF70121B4FBDE
:10245800F8F64FEA1E4308FB164443EA044307FB19
:1024680006F0984208D91CEB030306F1FF3402D2A8
:10247800984200F2CD8026461C1A1FFA8EF3B4FB50
:10248800F8F008FB104443EA044300FB07F79F42B7
:1024980008D91CEB030300F1FF3402D29F4200F27B
:1024A800B0802046DB1B40EA0640A5E7C1F12006C4
:1024B8008B4022FA06F71F4320FA06FC04FA01F3C0
:1024C80043EA0C03F44000FA01F8380C4FEA1349C8
:1024D800B4FBF0FE1FFA87FC00FB1E4449EA0444E3
:1024E8000EFB0CF9A14502FA01F20AD93C190EF1CA
:1024F800FF3A80F08480A14540F28180AEF1020E5F
:102508003C44A4EB09041FFA83F9B4FBF0F300FB85
:10251800134449EA044403FB0CFCA44507D93C19BD
:1025280003F1FF3067D2A44565D9023B3C4443EA36
:102538000E40A0FB0293A4EB0C049C42CE469C46A2
:1025480051D34ED055B1B8EB0E0364EB0C0404FA2A
:1025580006F6CB401E43CC40C5E90064002150E795
:10256800C2F1200320FA03F10CFA02FC24FA03F367
:1025780094400C434FEA1C4800FA02FE1FFA8CF7FD
:10258800B3FBF8F008FB1031230C43EA014300FBCE
:1025980007F1994208D91CEB030300F1FF362CD24E
:1025A80099422AD9023863445B1AA4B2B3FBF8F102
:1025B80008FB113344EA034401FB07F3A34208D99B
:1025C8001CEB040401F1FF3613D2A34211D90239DE
:1025D8006444E41A41EA004139E70446F0E6084653
:1025E80006E7C845AED2B9EB020E63EB070C01381B
:1025F800A8E73146EDE7034699E73046D4E7D646E3
:102608007FE7634402384DE70646234608460FE74E
:10261800023E634430E700BFF8B500BFF8BC08BC11
:102628009E467047F8B500BFF8BC08BC9E46704788
:10263800120024003000000006000C00100000000A
:10264800000000000100000002000000A086010058
:10265800400D0300801A060000350C0040420F00B0
:1026680080841E0000093D0000127A000024F40056
:1026780000366E010048E801006CDC020000000032
:102688000000000000000000000000000000000042
:102698000000000000000000000000000100000031
:1026A8000200000003000000040000000100000018
:1026B8000300000005000000010000000100000008
:1026C800060000000A0000002000000002000000D0
:1026D8000400000008000000100000004000000096
:1026E800800000000001000000020000010002005C
:1026F8000400060008000A000C001000200040003A
:10270800800000010804020408010101010101031D
:082718000701000000000000B1
:0827200044FCFF7F01000000F2
:0827280091010008000000000F
:082730006D010008000000002B
:1027380000093D000100000010000000000000003A
:04000005080022B914
:00000001FF
