:020000040800F2
:10000000008000200D3D0008870A00088D0A0008C6
:10001000930A0008990A00089F0A000800000000DF
:10002000000000000000000000000000A50A000819
:10003000B10A000800000000BD0A0008C90A000853
:100040005D3D00085D3D00085D3D00085D3D000828
:100050005D3D00085D3D00085D3D00085D3D000818
:100060005D3D00085D3D00085D3D00085D3D000808
:100070005D3D00085D3D00085D3D00085D3D0008F8
:100080005D3D00085D3D00085D3D00085D3D0008E8
:10009000000000005D3D00085D3D00085D3D00087A
:1000A0005D3D00085D3D00085D3D00085D3D0008C8
:1000B0005D3D00085D3D00085D3D00085D3D0008B8
:1000C0005D3D00085D3D00085D3D00085D3D0008A8
:1000D0005D3D00085D3D00085D3D00085D3D000898
:1000E0005D3D00085D3D00085D3D00085D3D000888
:1000F0005D3D000800000000000000005D3D0008BC
:100100005D3D00085D3D00085D3D00085D3D000867
:100110005D3D00085D3D00085D3D00085D3D000857
:100120005D3D00085D3D00085D3D00085D3D000847
:080130005D3D00085D3D000883
:100138000348044B834202D0034B03B1184770476E
:100148004004002040040020000000000548064943
:100158000B1AD90F01EBA301491002D0034B03B1CD
:1001680018477047400400204004002000000000A9
:1001780010B5064C237843B9FFF7DAFF044B13B1E7
:100188000448AFF300800123237010BD4004002011
:1001980000000000103F000808B5044B1BB10449DB
:1001A8000448AFF30080BDE80840CFE70000000036
:1001B80044040020103F0008002301461A46184650
:1001C80000F08CB838B5084B084D5B1B9C1007D065
:1001D800043B1D44013C55F804399847002CF9D1DB
:1001E800BDE8384003F096BE2440000820400008CF
:1001F80070B50D4E0D4D761BB61006D0002455F87F
:10020800043B01349847A642F9D1094E094D761BA3
:1002180003F07AFEB61006D0002455F8043B0134EA
:100228009847A642F9D170BD184000081840000848
:100238002040000818400008830730B548D0541EF5
:10024800002A3FD0CAB2034601E0013C3AD303F882
:10025800012B9D07F9D1032C2DD9CDB245EA0525EF
:100268000F2C45EA054536D9A4F1100222F00F0CEF
:1002780003F1200EE6444FEA121C03F1100242E992
:10028800045542E9025510327245F8D10CF10102C9
:1002980014F00C0F03EB021204F00F0C13D0ACF1A6
:1002A800040323F003030433134442F8045B93422A
:1002B800FBD10CF003042CB1CAB21C4403F8012B87
:1002C8009C42FBD130BD64461346002CF4D1F9E7BB
:1002D80003461446BFE71A46A446E0E770B4184C34
:1002E8002568D5F848411CB365681F2D25DC38B949
:1002F800AB1C0135656044F82310002070BC7047C2
:1003080004EB850C0228CCF88820D4F888614FF0DB
:10031800010202FA05F246EA0206C4F88861CCF83E
:100328000831E5D1D4F88C311343C4F88C31DFE7B8
:1003380005F5A674C5F84841D6E74FF0FF30DDE76C
:10034800443F000853B94AB9002908BF00281CBF18
:100358004FF0FF314FF0FF3000F074B9ADF1080CE9
:100368006DE904CE00F006F8DDF804E0DDE90223CB
:1003780004B070472DE9F047089E0D4604468846AC
:10038800002B4DD18A42944668D9B2FA82F252B112
:1003980001FA02F3C2F1200120FA01F10CFA02FC81
:1003A80041EA030894404FEA1C45210CB8FBF5FECE
:1003B8001FFA8CF705FB1E8341EA03430EFB07F186
:1003C80099420BD91CEB03030EF1FF3080F01E811C
:1003D800994240F21B81AEF1020E63445B1AA4B24B
:1003E800B3FBF5F005FB103344EA034400FB07F7C1
:1003F800A7420AD91CEB040400F1FF3380F00881FE
:10040800A74240F2058164440238E41B40EA0E40EA
:1004180000211EB1D4400023C6E90043BDE8F0879F
:100428008B4208D9002E00F0EE800021C6E90005B5
:100438000846BDE8F087B3FA83F100294AD1AB42F8
:1004480002D3824200F2F980841A65EB030301208B
:100458009846002EE2D0C6E90048DFE702B9FFDE81
:10046800B2FA82F2002A40F09180A1EB0C054FEA23
:100478001C471FFA8CFE0121B5FBF7F307FB13504D
:10048800250C45EA00450EFB03F0A84208D91CEBF1
:10049800050503F1FF3802D2A84200F2CB8043469B
:1004A8002D1AA4B2B5FBF7F007FB105544EA054432
:1004B8000EFB00FEA64508D91CEB040400F1FF352D
:1004C80002D2A64500F2BB802846A4EB0E0440EAFF
:1004D80003409EE7C1F120078B4022FA07FC4CEA53
:1004E800030C20FA07F405FA01F31C43FD404FEA18
:1004F8001C4900FA01F3B5FBF9F8200C1FFA8CFE31
:1005080009FB185540EA054508FB0EF0A84202FA17
:1005180001F20BD91CEB050508F1FF3A80F0888041
:10052800A84240F28580A8F1020865442D1AA4B2B9
:10053800B5FBF9F009FB105544EA054500FB0EFE32
:10054800AE4508D91CEB050500F1FF346CD2AE4569
:100558006AD90238654440EA0840A0FB0294A5EB3A
:100568000E05A542C846A64656D353D05EB1B3EB96
:10057800080265EB0E0505FA07F722FA01F3CD40EC
:100588001F43C6E900750021BDE8F087C2F12003CA
:1005980020FA03F10CFA02FC25FA03F395400D4307
:1005A8004FEA1C471FFA8CFEB3FBF7F107FB11302B
:1005B8002B0C43EA004301FB0EF0984204FA02F4C4
:1005C80008D91CEB030301F1FF382FD298422DD92B
:1005D800023963441B1AADB2B3FBF7F007FB1033C3
:1005E80045EA034500FB0EF3AB4208D91CEB0505B1
:1005F80000F1FF3816D2AB4214D902386544ED1A1F
:1006080040EA014138E73146304607E78646E5E6E5
:100618001846FAE64B45A9D2B9EB020864EB0C0E72
:100628000138A3E74046EAE7204694E74146D1E788
:10063800D0467BE7023B654432E7084609E7644455
:10064800023842E7704700BF80B485B000AF7860D9
:100658004FF0B043DA6C4FF0B0417B681343CB6482
:100668004FF0B043DA6C7B681340FB60FB6800BF57
:100678001437BD4680BC704780B500AF02F00CFB54
:1006880000F010F800F0B2F900F06EF800F0BEF8D3
:1006980000F04CF900F008F903F05DFB03F061FB92
:1006A800FCE7000080B59AB000AF07F120034822AC
:1006B80000211846FFF7C0FD07F1080300221A6061
:1006C8005A609A60DA601A615A61264B1B6823F4F3
:1006D800C063244A43F480631360224B1B6803F40D
:1006E800C0637B607B6822233B624FF480733B636B
:1006F80001233B6440237B6300237B646023BB644A
:100708000023FB6407F12003184601F013F80346A1
:10071800002B14BF01230023DBB2002B01D000F013
:10072800A9F94F23BB600023FB6000233B61002332
:100738007B610023BB610023FB6107F108030021F3
:10074800184601F079FB0346002B14BF0123002350
:10075800DBB2002B01D000F08DF900BF6837BD4631
:1007680080BD00BF0004005880B500AF254B264A65
:100778001A60244B4FF040425A60224B00229A6084
:10078800204B0022DA601F4B00221A611D4B042205
:100798005A611C4B00221A761A4B00225A76194BC2
:1007A80000229A76174B0122DA61164B002283F851
:1007B8002020144B00225A62124B00229A62114BDD
:1007C800002283F82C200F4B00221A630D4B0022C5
:1007D8005A630C4B00229A630A4B002283F83C2090
:1007E800084B0022DA64074800F080FB0346002B20
:1007F80014BF01230023DBB2002B01D000F03AF92B
:1008080000BF80BD5C0400200024014080B500AF1B
:10081800234B244A1A60224B40F614625A60204B3C
:1008280000229A601E4B0122DA601D4B00221A61D9
:100838001B4B00225A611A4B00229A61184B002266
:10084800DA61174B00221A62154802F0BFFA034614
:10085800002B14BF01230023DBB2002B01D000F0D2
:1008680009F900210E4802F040FB0346002B14BF93
:1008780001230023DBB2002B01D000F0FBF800219C
:10088800074802F07CFB0346002B14BF012300231A
:10089800DBB2002B01D000F0EDF800BF80BD00BF37
:1008A800C00400200058004080B500AF1D4B1E4A10
:1008B8001A601C4B4FF482725A601A4B00229A60DD
:1008C800184B4FF44072DA60164B00221A61154B30
:1008D80000225A61134B4FF400729A61114B0022A7
:1008E800DA61104B00221A620E4B00225A620D4B3D
:1008F80000229A620B4B0722DA620A4B00221A6323
:10090800084B08225A63074802F084FB0346002B71
:1009180014BF01230023DBB2002B01D000F0AAF89A
:1009280000BF80BD140500200038004080B500AF2E
:100938002C4B2D4A1A602B4B4FF4E1325A60294B4D
:1009480000229A60274B0022DA60264B00221A61A7
:10095800244B0C225A61234B00229A61214B00221E
:10096800DA61204B00221A621E4B00225A621D4B8C
:1009780000229A621B4802F042FC0346002B14BF77
:1009880001230023DBB2002B01D000F073F8002113
:10099800144803F0E8F80346002B14BF0123002392
:1009A800DBB2002B01D000F065F800210D4803F000
:1009B80018F90346002B14BF01230023DBB2002BD8
:1009C80001D000F057F8074803F095F80346002BCC
:1009D80014BF01230023DBB2002B01D000F04AF83A
:1009E80000BF80BD780500200038014080B586B082
:1009F80000AF3B1D00221A605A609A60DA601A61E3
:100A08000120FFF721FE0220FFF71EFE0420FFF75A
:100A18001BFE00224FF40871154802F029F8002245
:100A280040F20D414FF0904002F022F84FF4087365
:100A38007B600123BB600023FB6000233B613B1DFF
:100A480019460B4801F0B4FE40F20D437B600123C8
:100A5800BB600023FB6000233B613B1D19464FF040
:100A6800904001F0A5FE00BF1837BD4680BD00BF0D
:100A78000004004880B400AF72B600BFFEE780B43F
:100A880000AFFEE780B400AFFEE780B400AFFEE73A
:100A980080B400AFFEE780B400AFFEE780B400AFDB
:100AA80000BFBD4680BC704780B400AF00BFBD46E4
:100AB80080BC704780B400AF00BFBD4680BC7047A3
:100AC80080B500AF02F042F900BF80BD80B485B0A8
:100AD80000AF78604FF0B043DA6C4FF0B0417B68FC
:100AE8001343CB644FF0B043DA6C7B681340FB6070
:100AF800FB6800BF1437BD4680BC704780B485B022
:100B080000AF78604FF0B0439A6D4FF0B0417B680A
:100B180013438B654FF0B0439A6D7B681340FB60BD
:100B2800FB6800BF1437BD4680BC704780B485B0F1
:100B380000AF78604FF0B0431A6E4FF0B0417B6859
:100B480013430B664FF0B0431A6E7B681340FB608B
:100B5800FB6800BF1437BD4680BC704780B400AF47
:100B680000BFBD4680BC704780B588B000AF7860D4
:100B780007F10C0300221A605A609A60DA601A6161
:100B88007B681B680D4A934213D14FF40070FFF73E
:100B9800CDFF0220FFF79AFF42F21803FB60032300
:100BA8003B6100237B6107F10C031946044801F0FF
:100BB800FFFD00BF2037BD4680BD00BF00240140B7
:100BC8000004004880B596B000AF786007F1440390
:100BD80000221A605A609A60DA601A6107F10C0301
:100BE800382200211846FFF727FB7B681B68214A3B
:100BF80093423BD18023FB604FF440237B6207F193
:100C08000C03184601F0BAFC0346002B01D0FFF78D
:100C180031FF0120FFF75AFF0220FFF757FF4FF47B
:100C280000437B641223BB640023FB6400233B6501
:100C380004237B6507F1440319464FF0904001F007
:100C4800B7FD4FF400437B641223BB640023FB64AD
:100C580000233B6504237B6507F1440319460648D6
:100C680001F0A6FD4FF48000FFF748FF00BF58379A
:100C7800BD4680BD005800400004004880B596B0CD
:100C880000AF786007F1440300221A605A609A6046
:100C9800DA601A6107F10C03382200211846FFF7C1
:100CA800CBFA7B681B682B4A93424ED11023FB601A
:100CB8004FF40073BB6107F10C03184601F05EFCAA
:100CC8000346002B01D0FFF7D5FE4FF48040FFF715
:100CD80015FF0220FFF7FAFE0120FFF7F7FE0420B8
:100CE800FFF7F4FE4FF480437B640223BB640023C8
:100CF800FB6400233B6505237B6507F14403194624
:100D0800154801F055FD4FF400737B640223BB6462
:100D18000023FB6400233B6505237B6507F144033F
:100D280019464FF0904001F043FD02237B640223F3
:100D3800BB640023FB6400233B6503237B6507F149
:100D480044031946054801F033FD00BF5837BD4636
:100D580080BD00BF0038004000040048000800487B
:100D680080B596B000AF786007F1440300221A609E
:100D78005A609A60DA601A6107F10C033822002180
:100D88001846FFF759FA7B681B68164A934225D123
:100D98000123FB604FF440333B6107F10C03184615
:100DA80001F0ECFB0346002B01D0FFF763FE4FF484
:100DB8008040FFF7BBFE0220FFF788FEC0237B645C
:100DC8000223BB640023FB6400233B6507237B6588
:100DD80007F144031946044801F0EAFC00BF5837FC
:100DE800BD4680BD003801400004004880B485B08D
:100DF80000AFF860B9607A60FB685A69BB6803F0B5
:100E08000403072101FA03F3DB431A40BB6803F02C
:100E18000403796801FA03F31A43FB685A6100BFB7
:100E28001437BD4680BC704780B483B000AF78608B
:100E380039607B685A693B6803F00403072101FAAB
:100E480003F31A403B6803F0040322FA03F318463D
:100E58000C37BD4680BC704780B483B000AF786063
:100E68007B689B6823F0104323F0170343F08052FC
:100E78007B689A6000BF0C37BD4680BC704780B461
:100E880083B000AF78607B689B6803F08053B3F150
:100E9800805F01D1012300E0002318460C37BD46CE
:100EA80080BC704780B483B000AF78607B689B6873
:100EB80003F00103012B01D1012300E000231846B0
:100EC8000C37BD4680BC704780B483B000AF7860F3
:100ED8007B689B6803F00403042B01D1012300E025
:100EE800002318460C37BD4680BC704780B588B0D3
:100EF80000AF78600023FB770023BB6100237B6190
:100F08000023FB607B68002B01D101237EE17B6815
:100F18001B69002B7B689B6D002B09D17868FFF754
:100F280023FE7B680022DA657B68002283F8542060
:100F38007B681B681846FFF7A2FF0346002B15D1F4
:100F48007B681B681846FFF787FF9E4B1B689B0949
:100F58009D4AA2FB03239B0901335B00FB6002E06F
:100F6800FB68013BFB60FB68002BF9D17B681B68C1
:100F78001846FFF784FF0346002B0DD17B689B6D55
:100F880043F010027B689A657B68DB6D43F00102D1
:100F98007B68DA650123FB777B681B681846FFF7D7
:100FA80093FF38617B689B6D03F01003002B40F0C2
:100FB80024813B69002B40F020817B689B6D23F4E2
:100FC800817343F002027B689A657B681B68184648
:100FD800FFF768FF0346002B40F0A7807B689A68FC
:100FE8007B681B7E9B031A437B685B7EDB031A438B
:100FF8007B689B7E5B0313437A68126B002A02D0DE
:101008004FF4805200E000221A437B68DB681A43E1
:101018007B681B69002B04DA7B681B6923F000439B
:1010280001E04FF400131A437B6893F82C305B00FF
:101038001343BA691343BB617B6893F82030012BD3
:1010480014D17B689B7E002B04D1BB6943F48033A9
:10105800BB610BE07B689B6D43F020027B689A655F
:101068007B68DB6D43F001027B68DA657B685B6A4D
:10107800002B09D07B685B6A03F4E0727B689B6A8B
:101088001343BA691343BB617B681B68DB6823F4AD
:10109800FE3323F4FF737A681268B9690B43D3608F
:1010A8007B685B6803F040427B68DB6C13437A69BA
:1010B80013437B617B6893F83C30012B11D17B682B
:1010C8005B6803F040427B681B6C1A437B685B6C6F
:1010D8001A437B689B6C1A437B69134343F00103F3
:1010E8007B617B681B681A69384B13407A68126801
:1010F80079690B4313617B685B68B3F1404F14D087
:101108007B685B68B3F1804F0FD07B685B68B3F195
:10111800004F0AD02E4B1B6823F470127B685B6863
:1011280003F470132A4913430B607B6818687B68C3
:101138005B6B1A460021FFF759FE7B6818687B68CD
:101148009B6B1A462349FFF751FE7B681B69002BEE
:1011580008D17B681B689A6A7B681B6862F00F027B
:101168009A6217E07B681B69B3F5001F12D17B6890
:101178001B689B6A7B68DB69013B9B0003F01C03CF
:101188006FF00F0202FA03F17B681A6E7B681B6826
:101198000A439A627B681B6800211846FFF744FEE1
:1011A80002467B685B6B9A4216D17B680022DA653F
:1011B8007B689B6D23F0030343F001027B689A650B
:1011C80023E000BF38040020632D3E0502FCFF1F0A
:1011D8000827014004FFFF037B689B6D23F012037F
:1011E80043F010027B689A657B68DB6D43F001026F
:1011F8007B68DA650123FB7707E07B689B6D43F02A
:1012080010027B689A650123FB77FB7F184620371D
:10121800BD4680BD80B400AF064B1B6803F48073E5
:10122800B3F5807F01D1012300E000231846BD46B5
:1012380080BC70470004005880B400AF4FF0B04342
:101248001B684FF0B04243F40013136000BFBD4663
:1012580080BC704780B400AF4FF0B0431B684FF0BC
:10126800B04223F40013136000BFBD4680BC704732
:1012780080B400AF4FF0B0431B6803F48013B3F59C
:10128800801F01D1012300E000231846BD4680BC21
:10129800704780B400AF4FF0B0431B684FF0B042C6
:1012A80043F48033136000BFBD4680BC704780B4F0
:1012B80000AF4FF0B0431B684FF0B04223F48033C7
:1012C800136000BFBD4680BC704780B400AF4FF0CC
:1012D800B0431B6803F40033B3F5003F01D1012389
:1012E80000E000231846BD4680BC704780B400AFBC
:1012F8004FF0B0431B684FF0B04243F48073136063
:1013080000BFBD4680BC704780B400AF4FF0B0430B
:101318001B684FF0B04223F48073136000BFBD46D2
:1013280080BC704780B400AF4FF0B0431B6803F433
:101338008063B3F5806F01D1012300E000231846D4
:10134800BD4680BC704780B483B000AF78604FF072
:10135800B0435B6823F0FE427B681B064FF0B04148
:1013680013434B6000BF0C37BD4680BC704780B448
:1013780000AF4FF0B043D3F8903003F00203022BD4
:1013880001D1012300E000231846BD4680BC704708
:1013980080B400AF4FF0B043D3F894304FF0B04270
:1013A80043F00103C2F8943000BFBD4680BC7047CB
:1013B80080B400AF4FF0B043D3F894304FF0B04250
:1013C80023F00103C2F8943000BFBD4680BC7047CB
:1013D80080B400AF4FF0B043D3F8943003F0020369
:1013E800022B01D1012300E000231846BD4680BC32
:1013F800704780B400AF4FF0B0431B684FF0B04265
:1014080043F00103136000BFBD4680BC704780B441
:1014180000AF4FF0B0431B684FF0B04223F0010318
:10142800136000BFBD4680BC704780B400AF4FF06A
:10143800B0431B6803F00203022B01D1012300E033
:1014480000231846BD4680BC704780B400AF4FF0FB
:10145800B0431B6803F00803082B01D1012300E007
:1014680000231846BD4680BC704780B400AF4FF0DB
:10147800B0431B6803F0F0031846BD4680BC7047B4
:1014880080B400AF4FF0B043D3F8943003F47063E6
:101498001846BD4680BC704780B483B000AF786002
:1014A8004FF0B0435B6823F47F427B681B024FF028
:1014B800B04113434B6000BF0C37BD4680BC70473A
:1014C80080B483B000AF78604FF0B0439B6823F0DE
:1014D80003024FF0B0417B6813438B6000BF0C37A9
:1014E800BD4680BC704780B400AF4FF0B0439B68E6
:1014F80003F00C031846BD4680BC704780B483B027
:1015080000AF78604FF0B0439B6823F0F0024FF0D3
:10151800B0417B6813438B6000BF0C37BD4680BC6D
:10152800704780B483B000AF78604FF0B043D3F811
:10153800083123F00F027B681B094FF0B0411343B9
:10154800C1F8083100BF0C37BD4680BC704780B475
:1015580083B000AF78604FF0B0439B6823F4E0623B
:101568004FF0B0417B6813438B6000BF0C37BD461A
:1015780080BC704780B483B000AF78604FF0B04350
:101588009B6823F460524FF0B0417B6813438B6033
:1015980000BF0C37BD4680BC704780B400AF4FF029
:1015A800B0439B6803F0F0031846BD4680BC704703
:1015B80080B400AF4FF0B043D3F808311B0103F0FB
:1015C800F0031846BD4680BC704780B400AF4FF0AA
:1015D800B0439B6803F4E0631846BD4680BC70477F
:1015E80080B400AF4FF0B0439B6803F460531846D3
:1015F800BD4680BC704780B400AF4FF0B0431B6855
:101608004FF0B04243F08073136000BFBD4680BC0A
:10161800704780B400AF4FF0B0431B684FF0B04242
:1016280023F08073136000BFBD4680BC704780B450
:1016380000AF4FF0B0431B6803F00073B3F1007FB5
:1016480001D1012300E000231846BD4680BC704745
:1016580080B400AF4FF0B043DB681B0A03F07F0390
:101668001846BD4680BC704780B400AF4FF0B04309
:10167800DB6803F060431846BD4680BC704780B401
:1016880000AF4FF0B043DB6803F070031846BD4667
:1016980080BC704780B400AF4FF0B043DB6803F004
:1016A80003031846BD4680BC704780B400AF4FF0B6
:1016B800B0439B6803F48033B3F5803F01D1012325
:1016C80000E000231846BD4680BC704780B400AFD8
:1016D8004FF0B043D3F8083103F48033B3F5803FBB
:1016E80001D1012300E000231846BD4680BC7047A5
:1016F80080B400AF4FF0B0439B6803F40033B3F5F8
:10170800003F01D1012300E000231846BD4680BCFC
:10171800704780B400AF4FF0B0439B6803F4802358
:10172800B3F5802F01D1012300E000231846BD4600
:1017380080BC704780B588B000AF78607B68002BAC
:1017480001D101236FE3FFF7CEFEF861FFF7A2FF97
:10175800B8617B681B6803F02003002B00F0C4808D
:10176800FB69002B05D0FB690C2B76D1BB69012BDB
:1017780073D17B681B6A002B01D1012353E37B687B
:101788009A6A4FF0B0431B6803F00803002B05D09A
:101798004FF0B0431B6803F0F00306E04FF0B0438E
:1017A800D3F894301B0903F0F003934222D27B68EC
:1017B8009B6A184600F03CFD0346002B01D001232C
:1017C80031E34FF0B0431B684FF0B04243F00803D9
:1017D80013604FF0B0431B6823F0F0027B689B6AEC
:1017E8004FF0B04113430B607B685B6A1846FFF704
:1017F80053FE21E04FF0B0431B684FF0B04243F076
:10180800080313604FF0B0431B6823F0F0027B68B5
:101818009B6A4FF0B04113430B607B685B6A1846C4
:10182800FFF73AFE7B689B6A184600F001FD034605
:10183800002B01D00123F6E200F0C2FC0346A74AC0
:101848001360A74B1B68184601F046FA0346FB7461
:10185800FB7C002B47D0FB7CE5E27B681B6A002BF6
:101868002CD0FFF7C6FD01F083FA786108E001F09B
:101878007FFA02467B69D31A022B01D90323D2E2ED
:10188800FFF7D3FD0346002BF1D04FF0B0431B68A0
:101898004FF0B04243F0080313604FF0B0431B68A9
:1018A80023F0F0027B689B6A4FF0B04113430B6052
:1018B8007B685B6A1846FFF7EFFD15E0FFF7A7FDA9
:1018C80001F056FA786108E001F052FA02467B69A5
:1018D800D31A022B01D90323A5E2FFF7A6FD03467D
:1018E800002BF1D100E000BF7B681B6803F0010307
:1018F800002B58D0FB69082B05D0FB690C2B08D1AD
:10190800BB69032B05D17B685B68002B4BD1012396
:1019180089E24FF0B0431B6823F480127B689B6810
:101928004FF0B04113430B607B685B68B3F5803FB1
:1019380002D1FFF7AEFC0DE07B685B68B3F5041FCE
:1019480004D1FFF779FCFFF7A4FC03E0FFF7AFFC35
:10195800FFF780FC7B685B68002B12D001F008FA67
:10196800786108E001F004FA02467B69D31A642B17
:1019780001D9032357E2FFF7A8FC0346002BF1D057
:1019880011E001F0F5F9786108E001F0F1F902469B
:101998007B69D31A642B01D9032344E2FFF795FC32
:1019A8000346002BF1D17B681B6803F00203002B70
:1019B80046D0FB69042B05D0FB690C2B0ED1BB6903
:1019C800022B0BD17B681B69002B01D101232AE272
:1019D8007B685B691846FFF7B6FC31E07B681B69DA
:1019E800002B19D0FFF782FC01F0C2F9786108E0FA
:1019F80001F0BEF902467B69D31A022B01D90323F1
:101A080011E2FFF78FFC0346002BF1D07B685B697E
:101A18001846FFF798FC13E0FFF776FC01F0A8F9E9
:101A2800786108E001F0A4F902467B69D31A022B19
:101A380001D90323F7E1FFF775FC0346002BF1D129
:101A48007B681B6803F00803002B6ED07B689B69DA
:101A5800002B56D04FF0B043D3F89430FB607B682E
:101A6800DA69FB6803F010039A4231D0FB6803F08F
:101A78000203002B06D0FB6803F00103002B01D101
:101A88000123D0E1FB6803F00103002B13D0FFF71B
:101A98008FFC01F06DF9786108E001F069F9024600
:101AA8007B69D31A112B01D90323BCE1FFF790FC02
:101AB8000346002BF1D14FF0B043D3F8943023F014
:101AC80010027B68DB694FF0B0411343C1F89430D2
:101AD800FFF75EFC01F04CF978610CE03804002057
:101AE8003004002001F044F902467B69D31A112B17
:101AF80001D9032397E1FFF76BFC0346002BF1D0D4
:101B080013E0FFF755FC01F033F9786108E001F0C4
:101B18002FF902467B69D31A112B01D9032382E1DD
:101B2800FFF756FC0346002BF1D17B681B6803F0D6
:101B38000403002B00F0D880FFF76CFB0346002B52
:101B480013D100F0ADFF01F013F9786108E001F05E
:101B58000FF902467B69D31A022B01D9032362E1EC
:101B6800FFF758FB0346002BF1D07B68DB68002B9E
:101B78007BD07B68DB68852B03D07B68DB68052B13
:101B880009D14FF0B043D3F890304FF0B04243F052
:101B98000403C2F8903001F0EBF878614FF0B043DD
:101BA800D3F890304FF0B04243F00103C2F89030C0
:101BB8000AE001F0DDF802467B69D31A41F2883267
:101BC800934201D903232EE1FFF7D1FB0346002BF3
:101BD800EFD07B68DB68812B03D07B68DB68852BC3
:101BE80021D101F0C5F878614FF0B043D3F89030B7
:101BF8004FF0B04243F08003C2F890300AE001F0A1
:101C0800B7F802467B69D31A41F28832934201D968
:101C1800032308E14FF0B043D3F8903003F4006396
:101C2800002BECD060E001F0A3F878614FF0B043EE
:101C3800D3F890304FF0B04223F08003C2F89030D0
:101C48000AE001F095F802467B69D31A41F288321E
:101C5800934201D90323E6E04FF0B043D3F8903024
:101C680003F40063002BECD13EE001F081F87861C9
:101C78004FF0B043D3F890304FF0B04223F08003D8
:101C8800C2F890300AE001F073F802467B69D31A73
:101C980041F28832934201D90323C4E04FF0B043A4
:101CA800D3F8903003F40063002BECD101F060F816
:101CB80078614FF0B043D3F890304FF0B04223F042
:101CC8000103C2F890300AE001F052F802467B693D
:101CD800D31A41F28832934201D90323A3E0FFF7D4
:101CE80046FB0346002BEFD17B68DB6A002B00F034
:101CF8009980FB690C2B6CD07B68DB6A022B4BD17B
:101D0800FFF787FC01F034F8786108E001F030F85B
:101D180002467B69D31A0A2B01D9032383E0FFF714
:101D280086FC0346002BF1D14FF0B043DA68404BF4
:101D380013407A68116B7A68526B11437A68926B18
:101D4800120211437A68D26B11437A68126C1143FC
:101D58007A68526C0A434FF0B0411343CB60FFF7E7
:101D68004AFC4FF0B043DB684FF0B04243F0805379
:101D7800D36000F0FDFF786108E000F0F9FF02464B
:101D88007B69D31A0A2B01D903234CE0FFF74FFCD8
:101D98000346002BF1D045E0FFF73BFC00F0E8FFDD
:101DA800786108E000F0E4FF02467B69D31A0A2B49
:101DB80001D9032337E0FFF73AFC0346002BF1D1A2
:101DC8004FF0B043DA684FF0B0411A4B1340CB6084
:101DD80028E07B68DB6A012B01D1012323E04FF067
:101DE800B043DB68BB61BB6903F003027B681B6B14
:101DF8009A4215D1BB6903F070027B685B6B9A420B
:101E08000ED1BB6903F4FE427B689B6B1B029A42AE
:101E180006D1BB6903F060427B685B6C9A4201D0D3
:101E2800012300E0002318462037BD4680BD00BFCF
:101E38008C80C111FCFFFEEE80B584B000AF7860E5
:101E480039607B68002B01D101230FE1894B1B68A6
:101E580003F007033A689A421BD9864B1B6823F0A4
:101E6800070284493B6813430B6000F081FFF86068
:101E780008E000F07DFF0246FB68D31A022B01D967
:101E88000323F3E07B4B1B6803F007033A689A428D
:101E9800EFD17B681B6803F00203002B16D07B6828
:101EA8009B681846FFF72AFB00F062FFF86008E01D
:101EB80000F05EFF0246FB68D31A022B01D9032308
:101EC800D4E0FFF7F2FB0346002BF1D07B681B68D8
:101ED80003F04003002B16D07B685B691846FFF7B8
:101EE80020FB00F045FFF86008E000F041FF0246E3
:101EF800FB68D31A022B01D90323B7E0FFF7E6FBEF
:101F08000346002BF1D07B681B6803F00403002B09
:101F180016D07B68DB681846FFF719FB00F028FF2E
:101F2800F86008E000F024FF0246FB68D31A022B91
:101F380001D903239AE0FFF7DBFB0346002BF1D01E
:101F48007B681B6803F00803002B17D07B681B69AC
:101F5800DB001846FFF70EFB00F00AFFF86008E008
:101F680000F006FF0246FB68D31A022B01D90323AF
:101F78007CE0FFF7CEFB0346002BF1D07B681B68A3
:101F880003F00103002B43D07B685B68022B06D16A
:101F9800FFF79BF90346002B1ED1012366E07B68FF
:101FA8005B68032B06D1FFF742FB0346002B13D1D6
:101FB80001235BE07B685B68002B06D1FFF735FAED
:101FC8000346002B08D1012350E0FFF7ABF9034685
:101FD800002B01D1012349E07B685B681846FFF7B5
:101FE8006FFA00F0C5FEF8600AE000F0C1FE024694
:101FF800FB68D31A41F28832934201D9032335E0B2
:10200800FFF771FA02467B685B689B009A42ECD145
:10201800184B1B6803F007033A689A421BD2154B0A
:102028001B6823F0070213493B6813430B6000F059
:102038009FFEF86008E000F09BFE0246FB68D31A9A
:10204800022B01D9032311E00A4B1B6803F0070395
:102058003A689A42EFD100F0B3F80346064A136093
:10206800064B1B68184600F037FE03461846103723
:10207800BD4680BD004000583804002030040020D0
:1020880090B587B000AF00237B6100233B61FFF769
:102098002AFAB860FFF7FEFA7860BB68002B05D013
:1020A800BB680C2B39D17B68012B36D1FFF7CDF9F2
:1020B8000346002B15D1FFF7C8F90346012B06D1BB
:1020C800FFF7D3F903461B0A03F00F0305E0FFF7F8
:1020D800D7F903461B0A03F00F03364A52F8233098
:1020E80014E0FFF7B2F90346012B06D1FFF7BDF95B
:1020F80003461B0903F00F0305E0FFF7C1F9034688
:102108001B0903F00F032B4A52F823303B61BB68CD
:10211800002B15D13B697B6112E0BB68042B02D10F
:10212800254B7B610CE0BB68082B09D1FFF7A0F8B1
:102138000346012B02D1204B7B6101E01F4B7B61E1
:10214800FFF7D1F903460C2B2FD1FFF7A3FA7860DC
:102158007B68022B03D07B68032B03D00DE0164B62
:10216800FB600DE0FFF784F80346012B02D1124B08
:10217800FB6005E0114BFB6002E03B69FB6000BFC0
:10218800FFF766FA0246FB6803FB02F4FFF777FAEB
:1021980003461B090133B4FBF3F4FFF765FA034662
:1021A8005B0F0133B4FBF3F37B617B6918461C3783
:1021B800BD4690BDD03F00080024F4000048E80167
:1021C80098B500AFFFF75CFF0446FFF7E6F9034652
:1021D8001B0903F00F03034A52F82330B4FBF3F34F
:1021E800184698BD703F000898B500AFFFF7E8FFA4
:1021F8000446FFF7EAF903461B0A034A52F823305C
:1022080024FA03F3184698BDB03F000898B500AF0C
:10221800FFF7D6FF0446FFF7E3F90346DB0A034A54
:1022280052F8233024FA03F3184698BDB03F00084B
:1022380090B585B000AF78607B681B0903F00F0389
:10224800104A52F82330FB60FFF7B2F903461B0926
:1022580003F00F030C4A52F82330FA68B2FBF3F389
:10226800BB60BB68094AA2FB03239C0C00F026FC58
:1022780003461946204600F00BF803461846143763
:10228800BD4690BDD03F0008703F000883DE1B4369
:1022980080B58EB000AF786039603A4A07F1200304
:1022A80092E80300186004331980374A07F11803CD
:1022B80092E80300186004331980344A07F10C03CC
:1022C80007CA83E8070000237B633B68B3F5007FF8
:1022D8001BD100233B6314E03B6B5B0038333B446A
:1022E80033F8183C1A467B68934207D83B6B9B002F
:1022F80038333B4453F82C3C7B6321E03B6B013380
:102308003B633B6B022BE7D91AE00023FB6214E026
:10231800FB6A5B0038333B4433F8203C1A467B6841
:10232800934207D8FB6A9B0038333B4453F82C3C54
:102338007B6305E0FB6A0133FB62FB6A022BE7D98A
:10234800134B1B6823F0070211497B6B13430B6087
:1023580000F00EFDB86208E000F00AFD0246BB6A14
:10236800D31A022B01D9032307E0094B1B6803F09A
:1023780007037A6B9A42EFD1002318463837BD46D7
:1023880080BD00BF283F0008303F0008383F0008E4
:102398000040005880B400AF4FF0B043D3F89030FD
:1023A80003F00203022B01D1012300E000231846A9
:1023B800BD4680BC704780B483B000AF78604FF0F2
:1023C800B043D3F888207B681B0CDB431A407B683A
:1023D8009BB24FF0B0411343C1F8883000BF0C37AF
:1023E800BD4680BC704780B483B000AF78604FF0C2
:1023F800B043D3F8883023F440724FF0B0417B6883
:102408001343C1F8883000BF0C37BD4680BC704705
:1024180080B483B000AF78604FF0B043D3F8883011
:1024280023F440624FF0B0417B681343C1F8883011
:1024380000BF0C37BD4680BC704780B483B000AF86
:1024480078604FF0B043D3F888207B681B0903F409
:102458007F23DB431A407B681B0103F47F234FF083
:10246800B0411343C1F8883000BF0C37BD4680BC6B
:10247800704780B483B000AF78604FF0B043D3F8B2
:1024880088207B681B0C1B04DB431A407B681B04F9
:102498004FF0B0411343C1F8883000BF0C37BD4638
:1024A80080BC704780B483B000AF78604FF0B04311
:1024B800D3F8883023F040424FF0B0417B68134393
:1024C800C1F8883000BF0C37BD4680BC704780B467
:1024D80083B000AF78604FF0B043D3F8883023F072
:1024E80040524FF0B0417B681343C1F8883000BFB9
:1024F8000C37BD4680BC704780B483B000AF7860AD
:102508004FF0B043D3F8903023F440724FF0B0410D
:102518007B681343C1F8903000BF0C37BD4680BCC0
:10252800704780B400AF4FF0B043D3F8903003F455
:1025380040731846BD4680BC704780B400AF4FF06A
:10254800B043D3F890304FF0B04243F48033C2F830
:10255800903000BFBD4680BC704780B400AF4FF0DC
:10256800B043D3F890304FF0B04223F48033C2F830
:10257800903000BFBD4680BC7047000080B586B073
:1025880000AF786000237B610023FB740023BB74D9
:102598007B681B6803F48033002B58D000F080FA66
:1025A80000F0E6FBF86009E000F0E2FB0246FB6899
:1025B800D31A022B02D90323FB7406E07B4B1B685A
:1025C80003F48073B3F5807FEED1FB7C002B3CD104
:1025D800FFF7A7FF02467B685B6B9A420FD04FF06C
:1025E800B043D3F8903023F440737B61FFF7A5FF25
:1025F800FFF7B3FF4FF0B0427B69C2F890307B69B8
:1026080003F00203002B14D000F0B2FBF8600BE0DB
:1026180000F0AEFB0246FB68D31A41F288329342BF
:1026280002D90323FB7404E0FFF7B4FE0346012B31
:10263800EED1FB7C002B05D17B685B6B1846FFF75E
:102648005BFF04E0FB7CBB7401E0FB7CBB747B6834
:102658001B6803F00103002B04D07B685B681846F5
:10266800FFF7A9FE7B681B6803F00203002B04D068
:102678007B689B681846FFF79EFE7B681B6803F023
:102688002003002B04D07B681B691846FFF7C0FEA7
:102698007B681B6803F40073002B04D07B681B6AFB
:1026A8001846FFF7E6FE7B681B6803F48063002B7F
:1026B80004D07B685B6A1846FFF7DBFE7B681B6803
:1026C80003F40063002B04D07B689B6A1846FFF76D
:1026D800D0FE7B681B6803F04003002B04D07B68A6
:1026E8005B691846FFF7A9FE7B681B6803F0800347
:1026F800002B04D07B689B691846FFF79EFE7B6819
:102708001B6803F48073002B04D07B68DB691846D0
:10271800FFF793FE7B681B6803F01003002B11D0B2
:102728007B68DB681846FFF75EFE7B68DB68B3F5FD
:10273800807F07D14FF0B043DB684FF0B04243F0E1
:102748008073D3607B681B6803F40043002B10D0B0
:102758007B681B6B1846FFF7A5FE7B681B6B002B7D
:1027680007D14FF0B043DB684FF0B04243F08073BD
:10277800D3607B681B6803F48043002B11D07B680F
:10278800DB6A1846FFF7A3FE7B68DB6AB3F1005FDC
:1027980007D14FF0B043DB684FF0B04243F48033C9
:1027A800D360BB7C18461837BD4680BD000400586E
:1027B80080B487B000AF7860396000237B6140E166
:1027C8003B681A6801217B6901FA03F31340FB6037
:1027D800FB68002B00F032813B685B6803F0030361
:1027E800012B05D03B685B6803F00303022B30D153
:1027F8007B689B683B617B695B00032202FA03F3F9
:10280800DB433A6913403B613B68DA687B695B00EC
:1028180002FA03F33A6913433B617B683A699A60A9
:102828007B685B683B6101227B6902FA03F3DB4347
:102838003A6913403B613B685B681B0903F001027E
:102848007B6902FA03F33A6913433B617B683A698F
:102858005A603B685B6803F00303032B17D07B685F
:10286800DB683B617B695B00032202FA03F3DB430D
:102878003A6913403B613B689A687B695B0002FADE
:1028880003F33A6913433B617B683A69DA603B6852
:102898005B6803F00303022B23D17B69DA087B68AA
:1028A800083253F822303B617B6903F007039B0031
:1028B8000F2202FA03F3DB433A6913403B613B689A
:1028C8001A697B6903F007039B0002FA03F33A696C
:1028D80013433B617B69DA087B680832396943F83E
:1028E80022107B681B683B617B695B00032202FA4C
:1028F80003F3DB433A6913403B613B685B6803F0D1
:1029080003027B695B0002FA03F33A6913433B61F4
:102918007B683A691A603B685B6803F44033002BB4
:1029280000F08C804E4A7B699B08023352F82330B2
:102938003B617B6903F003039B00072202FA03F360
:10294800DB433A6913403B617B68B3F1904F0DD08C
:102958007B68444A934207D07B68434A934201D13B
:10296800022304E0072302E0012300E000237A6940
:1029780002F00302920093403A6913433B613849DD
:102988007B699B0802333A6941F82320374B1B685F
:102998003B61FB68DB433A6913403B613B685B681A
:1029A80003F48013002B03D03A69FB6813433B619F
:1029B8002E4A3B6913602D4B5B683B61FB68DB4328
:1029C8003A6913403B613B685B6803F40013002BD2
:1029D80003D03A69FB6813433B61244A3B6953605F
:1029E800224BD3F880303B61FB68DB433A691340E4
:1029F8003B613B685B6803F48033002B03D03A6982
:102A0800FB6813433B61194A3B69C2F88030174B96
:102A1800D3F884303B61FB68DB433A6913403B6180
:102A28003B685B6803F40033002B03D03A69FB680A
:102A380013433B610D4A3B69C2F884307B6901331B
:102A48007B613B681A687B6922FA03F3002B7FF4E9
:102A5800B7AE00BF00BF1C37BD4680BC704700BF83
:102A68000000014000040048000800480008005821
:102A780080B483B000AF78600B467B8013467B70D0
:102A88007B78002B03D07A887B689A6102E07A8889
:102A98007B689A6200BF0C37BD4680BC7047000057
:102AA80080B400AF044B1B68034A43F4807313607F
:102AB80000BFBD4680BC70470004005880B400AF1A
:102AC800034B1B6803F4C0631846BD4680BC7047BF
:102AD8000004005880B485B000AF78607B6803F0CC
:102AE8000703FB600C4BDB68BB60BA684FF6FF035B
:102AF8001340BB60FB681A02BB68134343F0BF6313
:102B080043F40033BB60044ABB68D36000BF14378A
:102B1800BD4680BC704700BF00ED00E080B400AF48
:102B2800044BDB681B0A03F007031846BD4680BC4C
:102B3800704700BF00ED00E080B483B000AF0346EB
:102B48003960FB7197F90730002B0ADB3B68DAB272
:102B58000C4997F907301201D2B20B4483F80023CD
:102B68000AE03B68DAB20849FB7903F00F03043B3B
:102B78001201D2B20B441A7600BF0C37BD4680BC96
:102B8800704700BF00E100E000ED00E080B489B0CC
:102B980000AFF860B9607A60FB6803F00703FB6177
:102BA800FB69C3F10703042B28BF0423BB61FB693E
:102BB8000433062B02D9FB69033B00E000237B6149
:102BC8004FF0FF32BB6902FA03F3DA43BB681A40DD
:102BD8007B699A404FF0FF317B6901FA03F3D943CF
:102BE8007B680B40134318462437BD4680BC7047AA
:102BF80080B582B000AF78607B68013BB3F1807F1D
:102C080001D301230FE00A4A7B68013B53600F217F
:102C18004FF0FF30FFF790FF054B00229A60044BFE
:102C280007221A60002318460837BD4680BD00BF3A
:102C380010E000E080B582B000AF78607868FFF7F8
:102C480049FF00BF0837BD4680BD80B586B000AFDC
:102C58000346B9607A60FB73FFF760FF78617A68B2
:102C6800B9687869FFF792FF024697F90F30114665
:102C78001846FFF761FF00BF1837BD4680BD80B515
:102C880082B000AF78607868FFF7B2FF0346184655
:102C98000837BD4680BD000080B582B000AF002374
:102CA800FB710320FFF7C6FFFFF78AFA0346094ABC
:102CB80013600F2000F010F80346002B02D0012308
:102CC800FB7101E0FDF74AFFFB7918460837BD465E
:102CD80080BD00BF3804002080B584B000AF7860A4
:102CE8000023FB73174B1B78002B24D0FFF768FADF
:102CF8000246144B1B7819464FF47A73B3FBF1F371
:102D0800B2FBF3F31846FFF7BAFF0346002B0FD1C7
:102D18007B680F2B09D8002279684FF0FF30FFF746
:102D280094FF094A7B68136007E00123FB7304E002
:102D38000123FB7301E00123FB73FB7B184610376B
:102D4800BD4680BD340400203004002080B400AFAC
:102D5800054B1B781A46054B1B681344034A13603E
:102D680000BFBD4680BC7047340400200C0600201C
:102D780080B400AF024B1B681846BD4680BC704744
:102D88000C06002080B584B000AF7860FFF7F0FF34
:102D9800B8607B68FB60FB68B3F1FF3F05D00A4B66
:102DA8001B781A46FB681344FB6000BFFFF7E0FF7F
:102DB8000246BB68D31AFA689A42F7D800BF00BF28
:102DC8001037BD4680BD00BF3404002080B582B0F6
:102DD80000AF78607B68002B01D1012381E07B681C
:102DE80093F84130DBB2002B06D17B68002283F8D0
:102DF80040207868FDF7E6FE7B68242283F84120AE
:102E08007B681B681A687B681B6822F001021A60DD
:102E18007B685A687B681B6822F070621A617B685D
:102E28001B689A687B681B6822F400429A607B687A
:102E3800DB68012B07D17B689A687B681B6842F4C2
:102E480000429A6006E07B689A687B681B6842F4D7
:102E580004429A607B68DB68022B04D17B681B689C
:102E68004FF400625A607B681B685B687A68126876
:102E780043F0007343F4004353607B681B68DA68CF
:102E88007B681B6822F40042DA607B681A697B68F9
:102E98005B6942EA03017B689B691A027B681B68CD
:102EA8000A43DA607B68D9697B681A6A7B681B68A1
:102EB8000A431A607B681B681A687B681B6842F0C3
:102EC80001021A607B6800225A647B68202283F81A
:102ED80041207B6800221A637B68002283F8422025
:102EE800002318460837BD4680BD80B483B000AFC4
:102EF800786039607B6893F84130DBB2202B38D199
:102F08007B6893F84030012B01D1022332E07B68C3
:102F1800012283F840207B68242283F841207B68C3
:102F28001B681A687B681B6822F001021A607B68BC
:102F38001B681A687B681B6822F480521A607B68D9
:102F48001B6819687B681B683A680A431A607B68C3
:102F58001B681A687B681B6842F001021A607B686C
:102F6800202283F841207B68002283F84020002338
:102F780000E0022318460C37BD4680BC704780B479
:102F880085B000AF786039607B6893F84130DBB278
:102F9800202B39D17B6893F84030012B01D10223D3
:102FA80033E07B68012283F840207B68242283F881
:102FB80041207B681B681A687B681B6822F0010245
:102FC8001A607B681B681B68FB60FB6823F47063EE
:102FD800FB603B681B02FA681343FB607B681B6855
:102FE800FA681A607B681B681A687B681B6842F07D
:102FF80001021A607B68202283F841207B68002246
:1030080083F84020002300E0022318461437BD4609
:1030180080BC704780B584B000AF78607B68002BB7
:1030280001D10123C6E07B685B6A002B08D17B686D
:103038005B68B3F5827F09D07B680022DA6105E01E
:103048007B6800221A617B6800225A617B6893F8CA
:103058005D30DBB2002B06D17B68002283F85C2050
:103068007868FDF70BFE7B68022283F85D207B6899
:103078001B681A687B681B6822F040021A607B682C
:10308800DB68B3F5E06F02D90023FB6002E04FF480
:103098008053FB607B68DB68B3F5706F07D07B6893
:1030A800DB68B3F5E06F02D07B6800229A627B6828
:1030B8005B6803F482727B689B6803F404431A43D9
:1030C8007B681B6903F002031A437B685B6903F0A2
:1030D80001031A437B689B6903F400731A437B68F6
:1030E800DB6903F038031A437B681B6A03F080032B
:1030F80042EA03017B689B6A03F400527B681B6801
:103108000A431A607B689B6AB3F5005F1BD17B6832
:103118001B6B002B0BD17B68DB68B3F5E06F03D921
:103128007B6802221A6302E07B6801221A637B68CB
:103138001B6B022B07D17B681B681A687B681B68AE
:1031480042F400621A607B689B691B0C03F004025E
:103158007B685B6A03F010031A437B685B6B03F0C0
:1031680008031A437B68DB6803F4706342EA0301CF
:10317800FB6803F480527B681B680A435A607B68CB
:103188009B6AB3F5005F05D17B68DA6A7B681B68C8
:1031980092B21A617B681B68DA697B681B6822F443
:1031A8000062DA617B6800221A667B68012283F874
:1031B8005D20002318461037BD4680BD80B483B01B
:1031C80000AF78604FF0B043D3F888207B681A408E
:1031D8007B681B04134318460C37BD4680BC7047F8
:1031E80080B483B000AF78604FF0B043D3F8882044
:1031F8007B68134018460C37BD4680BC704780B5C5
:1032080082B000AF78607B68002B01D1012342E0D7
:103218007B68D3F88830002B06D17B68002283F8BE
:1032280084207868FDF79CFD7B682422C3F88820F9
:103238007B681B681A687B681B6822F001021A60A9
:10324800786800F02DF80346012B01D1012322E014
:103258007B689B6A002B02D0786800F095FA7B683F
:103268001B685A687B681B6822F490425A607B6826
:103278001B689A687B681B6822F02A029A607B6840
:103288001B681A687B681B6842F001021A6078683C
:1032980000F01BFB034618460837BD4680BD0000FA
:1032A8002DE9B04F8CB000AF7861002387F82A3041
:1032B8007B699A687B691B691A437B695B691A4356
:1032C8007B69DB691343FB627B691B681A68944B53
:1032D80013407A691268F96A0B4313607B691B68AB
:1032E8005B6823F440517B69DA687B691B680A4391
:1032F8005A607B699B69FB627B691B68894A9342B8
:1033080004D07B691B6AFA6A1343FB627B691B68FA
:103318009B6823F06E4323F430637A691268F96A74
:103328000B4393607B691B68DB6A23F00F017B69A1
:103338005A6A7B691B680A43DA627B691B687A4AA6
:10334800934227D10320FFF739FF0346A3F5403303
:10335800032B1BD801A252F823F000BF75330008D5
:10336800853300087D3300088D330008012387F872
:103378002B3080E0022387F82B307CE0042387F889
:103388002B3078E0082387F82B3074E0102387F877
:103398002B3070E07B691B68644A934238D10C205B
:1033A800FFF70CFF0346A3F540230C2B2CD801A2F2
:1033B80052F823F0F13300081134000811340008E2
:1033C80011340008013400081134000811340008D1
:1033D80011340008F93300081134000811340008CA
:1033E8001134000809340008002387F82B3042E024
:1033F800022387F82B303EE0042387F82B303AE08D
:10340800082387F82B3036E0102387F82B3032E07A
:103418007B691B68434A93422AD14FF44060FFF707
:10342800DFFE0346B3F5406F1AD0B3F5406F1BD8E3
:10343800B3F5006F0CD0B3F5006F15D8002B03D08F
:10344800B3F5806F08D00FE0002387F82B3012E027
:10345800022387F82B300EE0042387F82B300AE08C
:10346800082387F82B3006E0102387F82B3002E07A
:10347800102387F82B307B691B682A4A934240F057
:10348800A48097F82B30082B23D801A252F823F0F8
:10349800BD340008DB340008C5340008DB340008FC
:1034A800CB340008DB340008DB340008DB340008C8
:1034B800D3340008FEF798FE786210E01C4B7B625C
:1034C8000DE0FEF7DDFD786209E04FF400437B6212
:1034D80005E000237B62012387F82A3000BF7B6A5E
:1034E800002B00F037817B695B6A124A32F813308F
:1034F8001A467B6AB3FBF2F3BB617B695A681346D1
:103508005B001344BA699A4205D37B695B681B0365
:10351800BA699A4210D9012387F82A301AE100BF04
:10352800F369FFCF008000400038014000440040AC
:103538000024F400483F00087B6A0022BB60FA6060
:103548007B695B6A8E4A32F813309BB200223B607B
:103558007A60D7E90023D7E90201FCF7F3FE0246B7
:103568000B46104619464FF000024FF000030B02BD
:1035780043EA1063020279694968490800200C4649
:10358800054612EB040843EB05097B695B680022DA
:103598009A46934652465B4640464946FCF7D2FE59
:1035A80002460B4613463B623B6AB3F5407F08D39D
:1035B8003B6AB3F5801F04D27B691B683A6ADA60FC
:1035C800C8E0012387F82A30C4E07B69DB69B3F5DA
:1035D800004F67D197F82B30082B28D801A252F852
:1035E80023F000BF113600081936000821360008FC
:1035F80037360008273600083736000837360008FF
:10360800373600082F360008FEF7EEFD786214E022
:10361800FEF7FCFD786210E05A4B7B620DE0FEF786
:103628002FFD786209E04FF400437B6205E0002338
:103638007B62012387F82A3000BF7B6A002B00F0E9
:1036480089807B695B6A4E4A32F813301A467B6A76
:10365800B3FBF2F35A007B695B685B081A447B6929
:103668005B68B2FBF3F33B623B6A0F2B16D93B6AEC
:10367800B3F5803F12D23B6A9BB223F00F03FB8362
:103688003B6A5B089BB203F007039AB2FB8B1343B8
:10369800FB837B691B68FA8BDA605BE0012387F8A0
:1036A8002A3057E097F82B30082B28D801A252F877
:1036B80023F000BFE1360008E9360008F1360008BB
:1036C80007370008F73600080737000807370008EB
:1036D80007370008FF360008FEF786FD786214E019
:1036E800FEF794FD786210E0264B7B620DE0FEF752
:1036F800C7FC786209E04FF400437B6205E00023D1
:103708007B62012387F82A3000BF7B6A002B21D017
:103718007B695B6A1A4A32F813301A467B6AB3FB34
:10372800F2F27B695B685B081A447B695B68B2FBF1
:10373800F3F33B623B6A0F2B09D93B6AB3F5803F31
:1037480005D23B6A9AB27B691B68DA6002E0012302
:1037580087F82A307B690122A3F86A207B69012255
:10376800A3F868207B6900225A677B6900229A6760
:1037780097F82A3018463037BD46BDE8B08F00BFED
:10378800483F00080024F40080B483B000AF78609C
:103798007B689B6A03F00103002B0AD07B681B68D7
:1037A8005B6823F400317B68DA6A7B681B680A432C
:1037B8005A607B689B6A03F00203002B0AD07B687F
:1037C8001B685B6823F480317B681A6B7B681B6815
:1037D8000A435A607B689B6A03F00403002B0AD0F3
:1037E8007B681B685B6823F480217B685A6B7B6865
:1037F8001B680A435A607B689B6A03F00803002B26
:103808000AD07B681B685B6823F400417B689A6B6D
:103818007B681B680A435A607B689B6A03F0100345
:10382800002B0AD07B681B689B6823F480517B6857
:10383800DA6B7B681B680A439A607B689B6A03F0B3
:103848002003002B0AD07B681B689B6823F4005177
:103858007B681A6C7B681B680A439A607B689B6A62
:1038680003F04003002B1AD07B681B685B6823F4C5
:1038780080117B685A6C7B681B680A435A607B68B6
:103888005B6CB3F5801F0AD17B681B685B6823F407
:10389800C0017B689A6C7B681B680A435A607B6826
:1038A8009B6A03F08003002B0AD07B681B685B6867
:1038B80023F400217B68DA6C7B681B680A435A6032
:1038C80000BF0C37BD4680BC704780B586B002AFDC
:1038D80078607B680022C3F89020FFF749FAF86007
:1038E8007B681B681B6803F00803082B0ED16FF078
:1038F8007E430093FB6800224FF40011786800F0C3
:1039080032F80346002B01D0032328E07B681B68AC
:103918001B6803F00403042B0ED16FF07E43009361
:10392800FB6800224FF48001786800F01CF8034619
:10393800002B01D0032312E07B682022C3F88820E3
:103948007B682022C3F88C207B680022DA667B68BB
:1039580000221A677B68002283F884200023184617
:103968001037BD4680BD80B59CB000AFF860B96027
:103978003B601346FB71A9E0BB6FB3F1FF3F00F05A
:10398800A580FFF7F5F902463B68D31ABA6F9A4249
:1039980002D3BB6F002B40D1FB681B683B653B6DB6
:1039A80053E8003FFB64FB6C23F4D0737B66FB6831
:1039B8001B681A467B6EFB65BA65B96DFA6D41E8FE
:1039C80000237B657B6D002BE6D1FB681B68083301
:1039D800FB63FB6B53E8003FBB63BB6B23F0010346
:1039E8003B66FB681B6808333A6EBA647B64796C83
:1039F800BA6C41E800233B643B6C002BE5D1FB68C3
:103A08002022C3F88820FB682022C3F88C20FB689A
:103A1800002283F88420032369E0FB681B681B6885
:103A280003F00403002B51D0FB681B68DB6903F427
:103A38000063B3F5006F49D1FB681B684FF400625F
:103A48001A62FB681B68BB62BB6A53E8003F7B6273
:103A58007B6A23F4D073FB66FB681B681A46FB6E0F
:103A68007B633A63396B7A6B41E80023FB62FB6A3C
:103A7800002BE6D1FB681B6808337B617B6953E840
:103A8800003F3B613B6923F00103BB66FB681B6891
:103A98000833BA6E3A62FB61F9693A6A41E8002371
:103AA800BB61BB69002BE5D1FB682022C3F88820E5
:103AB800FB682022C3F88C20FB682022C3F89020E2
:103AC800FB68002283F88420032310E0FB681B684E
:103AD800DA69BB681340BA689A420CBF0123002315
:103AE800DBB21A46FB799A423FF446AF00231846E8
:103AF8007037BD4680BD80B485B000AF78607B6804
:103B080093F88430012B01D1022327E07B6801223E
:103B180083F884207B682422C3F888207B681B688C
:103B28001B68FB607B681B681A687B681B6822F04F
:103B380001021A60FB6823F00053FB607B680022D7
:103B48005A667B681B68FA681A607B682022C3F88B
:103B580088207B68002283F88420002318461437C5
:103B6800BD4680BC704780B584B000AF78603960CE
:103B78007B6893F88430012B01D102232DE07B6808
:103B8800012283F884207B682422C3F888207B687C
:103B98001B681B68FB607B681B681A687B681B686E
:103BA80022F001021A607B681B689B6823F0604161
:103BB8007B681B683A680A439A60786800F050F896
:103BC8007B681B68FA681A607B682022C3F8882023
:103BD8007B68002283F88420002318461037BD46EE
:103BE80080BD80B584B000AF786039607B6893F899
:103BF8008430012B01D102232DE07B68012283F858
:103C080084207B682422C3F888207B681B681B6893
:103C1800FB607B681B681A687B681B6822F00102DE
:103C28001A607B681B689B6823F060617B681B686F
:103C38003A680A439A60786800F012F87B681B6853
:103C4800FA681A607B682022C3F888207B68002203
:103C580083F88420002318461037BD4680BD000035
:103C680080B485B000AF78607B685B6E002B08D1AC
:103C78007B680122A3F86A207B680122A3F86820E8
:103C880031E00823FB730823BB737B681B689B68C0
:103C98005B0EDBB203F007037B737B681B689B68D2
:103CA8005B0FDBB203F007033B73BB7B3A7B104926
:103CB8008A5C02FB03F33A7B0E498A5C93FBF2F3BE
:103CC8009AB27B68A3F86A20FB7B7A7B08498A5CF6
:103CD80002FB03F37A7B07498A5C93FBF2F39AB2FF
:103CE8007B68A3F8682000BF1437BD4680BC7047C6
:103CF800603F0008683F000880B400AF00BFBD46C1
:103D080080BC70470D488546FFF7F6FF0C480D4903
:103D18000D4A002302E0D458C4500433C4188C421E
:103D2800F9D30A4A0A4C002301E013600432A24284
:103D3800FBD3FCF75DFAFCF79FFCFEE70080002050
:103D48000000002040040020284000084004002013
:103D580010060020FEE780B400AF00BFBD4680BC5F
:103D6800704780B500AF00F002F800BF80BD80B595
:103D780000AF00F06BF80A20FFF704F800F050F8E5
:103D88000A20FEF7FFFF00F08DF80A20FEF7FAFF81
:103D980000F02EF80A20FEF7F5FF00F06FF80A2071
:103DA800FEF7F0FF00F092F8C820FEF7EBFF00F0F6
:103DB80059F80A20FEF7E6FF00F03DF80A20FEF762
:103DC800E1FF00F079F80A20FEF7DCFF00F01CF8AC
:103DD8000A20FEF7D7FF00F05BF80A20FEF7D2FFB3
:103DE80000F07EF8C820FEF7CDFF00BF80BD0000C0
:103DF80080B500AF01224FF400710248FEF738FE8B
:103E080000BF80BD0004004880B500AF00224FF419
:103E180000710248FEF72CFE00BF80BD0004004878
:103E280080B500AF01224FF480614FF09040FEF75B
:103E38001FFE00BF80BD80B500AF00224FF4806137
:103E48004FF09040FEF714FE00BF80BD80B500AF74
:103E5800012220210248FEF70BFE00BF80BD00BFF3
:103E68000004004880B500AF002220210248FEF778
:103E7800FFFD00BF80BD00BF0004004880B500AF53
:103E8800012201214FF09040FEF7F2FD00BF80BDF6
:103E980080B500AF002201214FF09040FEF7E8FD09
:103EA80000BF80BD80B500AF012208214FF09040CF
:103EB800FEF7DEFD00BF80BD80B500AF00220821FF
:103EC8004FF09040FEF7D4FD00BF80BD80B500AF35
:103ED800012204214FF09040FEF7CAFD00BF80BDCB
:103EE80080B500AF002204214FF09040FEF7C0FDDE
:103EF80000BF80BD024B13B10248FCF75DB97047A3
:103F080000000000CD010008F8B500BFF8BC08BCEF
:103F18009E467047F8B500BFF8BC08BC9E4670477F
:103F2800120024003000000006000C001000000001
:103F3800000000000100000002000000080000204E
:103F4800010002000400060008000A000C0010002E
:103F5800200040008000000101010103070100006A
:103F68000804020408010101010000000300000028
:103F7800050000000100000001000000060000002C
:103F88000A000000200000000200000004000000F9
:103F98000800000010000000400000008000000041
:103FA8000001000000020000000000000000000006
:103FB80000000000000000000100000002000000F6
:103FC8000300000004000000A0860100400D03006B
:103FD800801A060000350C0040420F0080841E0045
:103FE80000093D0000127A000024F40000366E013A
:103FF8000048E801006CDC0200000000000000003E
:084008000000000000000000B0
:084010006CC3FF7F01000000FA
:08401800FD3E0008A1010008B3
:08402000790100080000000016
:10402800080000200000000000000000F40200204A
:104038005C030020C4030020000000000000000012
:104048000000000000000000000000000000000068
:104058000000000000000000000000000000000058
:104068000000000000000000000000000000000048
:104078000000000000000000000000000000000038
:104088000000000000000000000000000000000028
:104098000000000000000000000000000000000018
:1040A8000000000000000000000000000000000008
:1040B80000000000000000000000000000000000F8
:1040C80000000000000000000000000000000000E8
:1040D80001000000000000000E33CDAB34126DE685
:1040E800ECDE05000B0000000000000000000000EE
:1040F80000000000000000000000000000000000B8
:1041080000000000000000000000000000000000A7
:104118000000000000000000000000000000000097
:104128000000000000000000000000000000000087
:10445800100000000100000000093D0000000000FD
:0400000508003D0DA5
:00000001FF
