:020000040800F2
:1000000000800020B51B0008B30F0008B50F0008E2
:10001000B70F0008B90F0008BB0F00080000000070
:10002000000000000000000000000000BD0F0008FC
:10003000BF0F000800000000C10F0008C30F000838
:10004000051C0008051C0008CD0F0008051C000851
:10005000051C0008051C0008051C0008051C0008FC
:10006000051C0008051C0008051C0008051C0008EC
:10007000051C0008051C0008051C0008E90F000805
:10008000051C0008051C0008051C0008051C0008CC
:1000900000000000051C0008051C0008051C0008E5
:1000A000051C0008051C0008051C0008051C0008AC
:1000B000051C0008051C0008051C0008051C00089C
:1000C000051C0008051C0008051C0008051C00088C
:1000D000F90F0008051C0008051C0008051C000895
:1000E000051C0008DD0F000809100008051C0008A9
:1000F000051C00080000000000000000051C0008AE
:10010000051C0008051C000819100008051C000843
:10011000051C0008051C0008051C0008051C00083B
:10012000051C0008051C0008051C0008051C00082B
:08013000051C0008051C000875
:1001380010B5054C237833B9044B13B10448AFF319
:1001480000800123237010BDDC00002000000000A7
:10015800000F010808B5034B1BB103490348AFF36F
:10016800008008BD00000000E0000020000F01082A
:10017800034613F8012B002AFBD1181A01387047DF
:1001880081F0004102E000BF83F0004330B54FEA40
:1001980041044FEA430594EA050F08BF90EA020FAD
:1001A8001FBF54EA000C55EA020C7FEA645C7FEA40
:1001B800655C00F0E2804FEA5454D4EB5555B8BF63
:1001C8006D420CDD2C4480EA020281EA030382EAD4
:1001D800000083EA010180EA020281EA0303362D66
:1001E80088BF30BD11F0004F4FEA01314FF4801C39
:1001F8004CEA113102D0404261EB410113F0004F4B
:100208004FEA03334CEA133302D0524263EB430301
:1002180094EA050F00F0A780A4F10104D5F1200E9F
:100228000DDB02FA0EFC22FA05F2801841F10001FA
:1002380003FA0EF2801843FA05F359410EE0A5F1CE
:1002480020050EF1200E012A03FA0EFC28BF4CF0FF
:10025800020C43FA05F3C01851EBE37101F00045B5
:1002680007D54FF0000EDCF1000C7EEB00006EEBC2
:100278000101B1F5801F1BD3B1F5001F0CD349084C
:100288005FEA30004FEA3C0C04F101044FEA4452A3
:1002980012F5800F80F09A80BCF1004F08BF5FEA2A
:1002A800500C50F1000041EB045141EA050130BD0A
:1002B8005FEA4C0C404141EB0101013C28BFB1F51C
:1002C800801FE9D291F0000F04BF01460020B1FA67
:1002D80081F308BF2033A3F10B03B3F120020CDA3A
:1002E8000C3208DD02F1140CC2F10C0201FA0CF018
:1002F80021FA02F10CE002F11402D8BFC2F1200C7D
:1003080001FA02F120FA0CFCDCBF41EA0C01904032
:10031800E41AA2BF01EB0451294330BD6FEA04047B
:100328001F3C1CDA0C340EDC04F11404C4F1200266
:1003380020FA04F001FA02F340EA030021FA04F378
:1003480045EA030130BDC4F10C04C4F1200220FACF
:1003580002F001FA04F340EA0300294630BD21FA0D
:1003680004F0294630BD94F0000F83F4801306BFD3
:1003780081F480110134013D4EE77FEA645C18BFC7
:100388007FEA655C29D094EA050F08BF90EA020F5E
:1003980005D054EA000C04BF1946104630BD91EA56
:1003A800030F1EBF0021002030BD5FEA545C05D159
:1003B8004000494128BF41F0004130BD14F5800498
:1003C8003CBF01F5801130BD01F0004545F0FE410C
:1003D80041F470014FF0000030BD7FEA645C1ABF41
:1003E800194610467FEA655C1CBF0B46024650EA78
:1003F800013406BF52EA033591EA030F41F40021A4
:1004080030BD00BF90F0000F04BF0021704730B529
:100418004FF4806404F132044FF000054FF00001FE
:1004280050E700BF90F0000F04BF0021704730B5BF
:100438004FF4806404F1320410F0004548BF404294
:100448004FF000013EE700BF42004FEAE2014FEAE9
:1004580031014FEA02701FBF12F07F4393F07F4FC4
:1004680081F06051704732F07F4208BF704793F0C7
:100478007F4F04BF41F40021704730B54FF46074DA
:1004880001F0004521F000411CE700BF50EA0102DD
:1004980008BF704730B54FF000050AE050EA010286
:1004A80008BF704730B511F0004502D5404261EBF6
:1004B80041014FF4806404F132045FEA915C3FF437
:1004C800D8AE4FF003025FEADC0C18BF03325FEAD4
:1004D800DC0C18BF033202EBDC02C2F1200300FA85
:1004E80003FC20FA02F001FA03FE40EA0E0021FAAA
:1004F80002F11444BDE600BF4FF0FF3C06E000BF28
:100508004FF0010C02E000BF4FF0010C4DF804CD94
:100518004FEA410C7FEA6C5C4FEA430C18BF7FEA54
:100528006C5C1BD001B050EA410C0CBF52EA430C82
:1005380091EA030F02BF90EA020F0020704710F102
:10054800000F91EA030F58BF994208BF90422CBF91
:10055800D8176FEAE37040F0010070474FEA410C8A
:100568007FEA6C5C02D150EA013C07D14FEA430CA8
:100578007FEA6C5CD6D152EA033CD3D05DF8040B19
:10058800704700BF8446104662468C46194663464B
:1005980000E000BF01B5FFF7B7FF002848BF10F122
:1005A800000F01BD4DF808EDFFF7F4FF0CBF012067
:1005B80000205DF808FB00BF4DF808EDFFF7EAFFE3
:1005C80034BF012000205DF808FB00BF4DF808ED9E
:1005D800FFF7E0FF94BF012000205DF808FB00BF93
:1005E8004DF808EDFFF7CEFF94BF012000205DF81D
:1005F80008FB00BF4DF808EDFFF7C4FF34BF01202A
:1006080000205DF808FB00BF4FEA410212F5001216
:1006180015D211D56FF47873B3EB625212D94FEA41
:10062800C12343F0004343EA505311F0004F23FA2B
:1006380002F018BF404270474FF00000704750EA80
:10064800013005D111F0004008BF6FF0004070473D
:100658004FF00000704700BF80F0004002E000BF8C
:1006680081F0004142001FBF5FEA410392EA030F95
:100678007FEA226C7FEA236C6AD04FEA1262D2EBDF
:100688001363C1BFD218414048404140B8BF5B42E4
:10069800192B88BF704710F0004F40F4000020F07D
:1006A8007F4018BF404211F0004F41F4000121F093
:1006B8007F4118BF494292EA030F3FD0A2F10102DD
:1006C80041FA03FC10EB0C00C3F1200301FA03F11B
:1006D80000F0004302D5494260EB4000B0F5000F3E
:1006E80013D3B0F1807F06D340084FEA310102F1FD
:1006F8000102FE2A51D2B1F1004F40EBC25008BFAF
:1007080020F0010040EA03007047490040EB000078
:10071800013A28BFB0F5000FEDD2B0FA80FCACF179
:10072800080CB2EB0C0200FA0CF0AABF00EBC250A6
:1007380052421843BCBFD0401843704792F0000F94
:1007480081F4000106BF80F400000132013BB5E7E7
:100758004FEA41037FEA226C18BF7FEA236C21D05D
:1007680092EA030F04D092F0000F08BF08467047C2
:1007780090EA010F1CBF0020704712F07F4F04D190
:10078800400028BF40F00040704712F100723CBFA3
:1007980000F50000704700F0004343F0FE4040F4CD
:1007A800000070477FEA226216BF08467FEA23638B
:1007B8000146420206BF5FEA412390EA010F40F476
:1007C800800070474FF0000304E000BF10F00043C2
:1007D80048BF40425FEA000C08BF704743F09643A9
:1007E80001464FF000001CE050EA010208BF7047C4
:1007F8004FF000030AE000BF50EA010208BF70474B
:1008080011F0004302D5404261EB41015FEA010C5F
:1008180002BF84460146002043F0B64308BFA3F157
:100828008053A3F50003BCFA8CF2083AA3EBC25339
:1008380010DB01FA02FC634400FA02FCC2F1200258
:10084800BCF1004F20FA02F243EB020008BF20F08F
:100858000100704702F1200201FA02FCC2F12002F5
:1008680050EA4C0021FA02F243EB020008BF20EAEA
:10087800DC70704753B94AB9002908BF00281CBF6B
:100888004FF0FF314FF0FF3000F074B9ADF1080CB4
:100898006DE904CE00F006F8DDF804E0DDE9022396
:1008A80004B070472DE9F047089E0D460446884677
:1008B800002B4DD18A42944668D9B2FA82F252B1DD
:1008C80001FA02F3C2F1200120FA01F10CFA02FC4C
:1008D80041EA030894404FEA1C45210CB8FBF5FE99
:1008E8001FFA8CF705FB1E8341EA03430EFB07F151
:1008F80099420BD91CEB03030EF1FF3080F01E81E7
:10090800994240F21B81AEF1020E63445B1AA4B215
:10091800B3FBF5F005FB103344EA034400FB07F78B
:10092800A7420AD91CEB040400F1FF3380F00881C8
:10093800A74240F2058164440238E41B40EA0E40B5
:1009480000211EB1D4400023C6E90043BDE8F0876A
:100958008B4208D9002E00F0EE800021C6E9000580
:100968000846BDE8F087B3FA83F100294AD1AB42C3
:1009780002D3824200F2F980841A65EB0303012056
:100988009846002EE2D0C6E90048DFE702B9FFDE4C
:10099800B2FA82F2002A40F09180A1EB0C054FEAEE
:1009A8001C471FFA8CFE0121B5FBF7F307FB135018
:1009B800250C45EA00450EFB03F0A84208D91CEBBC
:1009C800050503F1FF3802D2A84200F2CB80434666
:1009D8002D1AA4B2B5FBF7F007FB105544EA0544FD
:1009E8000EFB00FEA64508D91CEB040400F1FF35F8
:1009F80002D2A64500F2BB802846A4EB0E0440EACA
:100A080003409EE7C1F120078B4022FA07FC4CEA1D
:100A1800030C20FA07F405FA01F31C43FD404FEAE2
:100A28001C4900FA01F3B5FBF9F8200C1FFA8CFEFB
:100A380009FB185540EA054508FB0EF0A84202FAE2
:100A480001F20BD91CEB050508F1FF3A80F088800C
:100A5800A84240F28580A8F1020865442D1AA4B284
:100A6800B5FBF9F009FB105544EA054500FB0EFEFD
:100A7800AE4508D91CEB050500F1FF346CD2AE4534
:100A88006AD90238654440EA0840A0FB0294A5EB05
:100A98000E05A542C846A64656D353D05EB1B3EB61
:100AA800080265EB0E0505FA07F722FA01F3CD40B7
:100AB8001F43C6E900750021BDE8F087C2F1200395
:100AC80020FA03F10CFA02FC25FA03F395400D43D2
:100AD8004FEA1C471FFA8CFEB3FBF7F107FB1130F6
:100AE8002B0C43EA004301FB0EF0984204FA02F48F
:100AF80008D91CEB030301F1FF382FD298422DD9F6
:100B0800023963441B1AADB2B3FBF7F007FB10338D
:100B180045EA034500FB0EF3AB4208D91CEB05057B
:100B280000F1FF3816D2AB4214D902386544ED1AE9
:100B380040EA014138E73146304607E78646E5E6B0
:100B48001846FAE64B45A9D2B9EB020864EB0C0E3D
:100B58000138A3E74046EAE7204694E74146D1E753
:100B6800D0467BE7023B654432E7084609E7644420
:100B7800023842E7704700BF08B51348134B0360BB
:100B88004FF00043436000238360C3600361042285
:100B980042610376437683760122C26180F8203071
:100BA8004362836280F82C304FF48052026307223C
:100BB8004263826380F83C30C36401F039F900B9BC
:100BC80008BD00F0FCF8FBE7F80000200024014015
:100BD8000268094B9A4200D0704782B04FF0B04388
:100BE8001A6E42F400721A661B6E03F400730193C6
:100BF800019B02B0704700BF002401400268054B0A
:100C08009A4200D070474FF0B042136E23F400733D
:100C18001366F7E70024014030B585B00446002389
:100C2800019302930393FFF7A7FF164801F056FDBF
:100C3800F8B9019400230293039301A9114801F024
:100C480097FAC8B90F4801F057FCC0B90D4C4FF0DE
:100C5800FF31204601F02AFA204601F01FFD204608
:100C680001F083FA0546204601F0C2FC284605B08B
:100C780030BD00F0A4F8DCE700F0A1F8E2E700F0EE
:100C88009EF8E3E7F8000020014B024A1A6070471B
:100C9800F80000200024014008B50D48FFF7BCFF0C
:100CA800A0B102460B4BB3F8AA304FF6FF718B4246
:100CB80007D040F6E44003FB00F0B0FBF2F080B24E
:100CC80005E00548B0FBF2F080B200E0002008BD66
:100CD800002000B40075FF1FD8084C0010B582B082
:100CE800FFF7DAFF04461F48FFF796FF1E4AB2F8DF
:100CF800C830B2F8A82093421AD000FB04F4A40824
:100D08001A49A1FB0414C2EB5414642101FB04F436
:100D18009B1A94FBF3F41E3424B20094144B012262
:100D2800002110460FF098FA200200B202B010BD60
:100D380000FB04F40F4BA3FB0423E41A03EB540455
:100D4800E40A4FF47A7303FB04F4A4F53924A4F5F8
:100D58000C64094880FB0430E417C4EBA0241E345B
:100D680024B2DAE7001000B00075FF1F9F00EE09FB
:100D78009C0F010801011000AD8BDB6800B583B042
:100D88004FF0B0439A6C42F004029A649A6C02F0F5
:100D980004020192019A9A6C42F001029A649B6CD7
:100DA80003F001030093009B002202210F2001F0B1
:100DB800F9FC0F2001F02EFD03B05DF804FB72B6BC
:100DC800FEE710B59AB04822002108A810F00CF8E8
:100DD800002402940394049405940694079402F062
:100DE80017F94FF0B042D2F8903023F01803C2F848
:100DF800903002F58062136823F4C06343F40073F3
:100E08001360136803F4C0630193019B24230893C0
:100E180081230B93012310931194B02312931394FD
:100E280008A802F08FFA70B94F23029300230393A6
:100E38000493059306930793022102A802F0BEFDCE
:100E480018B91AB010BDFFF7BAFFFFF7B8FF08B519
:100E580000F094FFFFF7B5FF00F07AFC00F07EFC8D
:100E680041F2883000F0DEF9F8E7000000B58DB0F7
:100E78002C22002101A80FF0B7FF1948194B036075
:100E88001F23836000230361436183614FF0804225
:100E9800C26103624FF48073436203F0D3F8A8B9C8
:100EA8000F4803F009FAA0B90022089202920692AC
:100EB8004FF0005307934FF480730B9301A9084830
:100EC80003F01EF940B90DB05DF804FBFFF777FF9A
:100ED800E6E7FFF774FFE7E7FFF771FFF3E700BF07
:100EE8005C0100200028004010B590B0044638226C
:100EF800002102A80FF078FF22681A4B9A4201D00D
:100F080010B010BD4FF4803302934FF480730F93E9
:100F180002A802F085FE08BB4FF0B043D3F890203A
:100F280042F40042C3F890209A6D42F480629A65B8
:100F38009B6D03F480630193019B002211460220FC
:100F480001F030FC022001F065FC002211462A2045
:100F580001F028FC2A2001F05DFCD1E7FFF72FFF04
:100F6800DAE700BF002800407047704708B500F076
:100F780027FF0120024BC3F8880002F0ADF808BD36
:100F88000004005808B500F022FF08BD08B500F0BD
:100F98001EFF00F0ABFB08BD08B500F011FF0121F2
:100FA800002002F03DF808BD70477047FEE7FEE7F5
:100FB800FEE7FEE770477047704708B500F0F4FE9B
:100FC80008BD000008B5024803F0A2F908BD00BF3B
:100FD8005C01002008B54FF4005002F00BF808BD82
:100FE80008B5024801F034FE08BD00BFA801002082
:100FF80008B5024803F048FE08BD00BF08020020FB
:1010080008B5024802F096FF08BD00BF5C01002049
:1010180008B5024803F026FC08BD00BF9401002073
:1010280008B505480823036003F0A8F900B908BD0E
:10103800FFF7C5FEFBE700BF9401002000B583B0B1
:101048004FF0B0435A6E42F001025A665B6E03F0ED
:1010580001030193019B00221146322001F0A2FBFB
:10106800322001F0D7FB03B05DF804FB0CB400B5E7
:1010780083B004AB53F8042B01930FF0CDFD03B0FC
:101088005DF804EB02B0704730B585B004460D46F4
:1010980002A80FF037FBBDF90C300093029B054AFC
:1010A80010212046FFF7E2FF2046FFF761F828806D
:1010B80005B030BDC00F010808B54FF0B0429368C5
:1010C80023F4004393600FF0A1FB00F0BCF800F09C
:1010D800DCF80FF04DF808480FF064F802200FF024
:1010E80067F8FFF7D1FD00F0D1F80FF071F9012191
:1010F80008460FF08DF908BD9110000808B50FF0EB
:101108009DF908BD10B582B0FFF7C6FD40F6B833AB
:1011180098420DD8B0F5E16F15D3A0F5E160C0EBAA
:10112800C01044000948A0FB0434C4F3C71400E00D
:10113800FE240094064B0122002102200FF08CF8B7
:10114800204602B010BD0024F3E700BFB5814E1B56
:10115800CC0F010808B5FFF7C1FD0346002802DBE4
:10116800C3F30F2008BD00F1FF03F9E738B50446C3
:10117800184BD3F88035B3F1FF3F13D0C3711A0A67
:1011880082711A0C42711B0E0371124BD3F884251D
:10119800C270D3F884351A0A82701A0C42701B0E7A
:1011A800037038BD00F01AFE054600F023FE054422
:1011B80000F01AFE2B0EE3712B0CA3712B0A63713E
:1011C8002571030EE370030CA370030A637020708B
:1011D800E7E700BF0070FF1F084BD3F88005B0F1A8
:1011E800FF3F00D0704710B500F0F8FD044600F04E
:1011F800FBFD444000F0FEFD604010BD0070FF1F85
:1012080008B5012102200FF0EDF808BD08B500214E
:1012180002200FF0E7F808BD0020704708B500F07D
:1012280053F808BD00B583B00190019800F024F987
:1012380003B05DF804FB08B500F0E2FD00F0E8FD3E
:1012480000F0EEFD08BD10B586B0002401940294AC
:10125800039404940594032302934FF4C043019329
:101268004FF0B043DA6C42F00102DA64DB6C03F051
:1012780001030093009B01A94FF0904001F05CFD31
:101288002046FFF7D8FF06B010BD70470020704712
:10129800024B9868C043024B186070470028004012
:1012A800A4010020014B1868704700BFA40100206A
:1012B800034B9B68DB43034A1068181A704700BF4A
:1012C80000280040A4010020044B1B781BB1044BEC
:1012D8009868C04370470020704700BFA0010020F5
:1012E800002800400320704708B501464FF47A7281
:1012F80000238002890DFFF7BDFA08BDC20E430125
:101308001B1A62F10002920042EA93729B001B18BA
:1013180042F10000C00040EA5370C3F3D51343EA1A
:101328008050704710B5074B0122DA65064C4FF420
:101338008071204602F0BEFD4FF0FF33236300208A
:1013480010BD00BF002800405C01002008B502461F
:101358000221024802F0F1FF08BD00BF5C01002035
:1013680038B50F4B1B780BB1002038BD0D4C4FF032
:10137800FF352563FFF77AFDFFF7D4FF4FF480713F
:10138800204602F097FD2563204602F075FF0020F5
:10139800FFF7DCFFFFF77CFF014B01221A70E3E740
:1013A800A00100205C01002008B502460021024887
:1013B80002F0C3FF08BD00BF5C01002008B502466B
:1013C8000121024802F0B9FF08BD00BF5C010020FE
:1013D80010B58CB004462C22002101A80FF004FDA2
:1013E800FFF7A0FF0C4B1868044400230893E4435C
:1013F800029406934FF0005307934FF480730B93B6
:10140800012201A9054802F07BFE10B900200CB0AA
:1014180010BDFFF7D4FCF9E7A40100205C0100200F
:1014280008B50221014802F08FFF08BD5C010020C9
:1014380038B50546074B9C68E443FFF7F1FF2346A0
:10144800A40A44EA8054C3F30900FFF757FF288031
:10145800204638BD0028004008B50021014802F0A8
:1014680073FF08BD5C01002008B50121014802F0A6
:101478006BFF08BD5C01002008B5FFF735FF064B80
:101488009A68D24300E000BF034B9B68DB439B1A7A
:101498008342F8D308BD00BF0028004008B50FF00C
:1014A800D9FA08BD08B5FFF7BBFF0130FFF74EFFBB
:1014B80008BD000008B51748174B03604FF4E13327
:1014C800436000238360C36003610C22426183612F
:1014D800C36103624362836204F035FA70B9002184
:1014E8000C4804F0E2FB60B900210A4804F002FC51
:1014F80050B9084804F0B5FB48B908BDFFF75FFCD0
:10150800EDE7FFF75CFCEFE7FFF759FCF1E7FFF7C2
:1015180056FCF2E7080200200038014030B597B0C9
:1015280004460021119112911391149115913822BA
:1015380003A80FF059FC2268294B9A4201D017B032
:1015480030BD0123039303F54033049303A802F04D
:1015580067FB00283ED14FF0B0431A6E42F4804238
:101568001A661A6E02F480420292029ADA6C42F00B
:101578000202DA64DB6C03F002030193019BC023CF
:101588001193022312930025139503231493072321
:10159800159311A9134801F0CFFB1348134B0360AF
:1015A8001223436010238360C56080230361456173
:1015B8008561C561056201F0BDF970B90A4BA36781
:1015C8009C6200220221242001F0ECF8242001F082
:1015D80021F9B4E7FFF7F3FBBDE7FFF7F0FBEDE711
:1015E8000038014000040048A801002058000240CB
:1015F80002680B4B9A4200D0704710B504464FF072
:10160800B042136E23F480431366C021054801F0ED
:1016180065FCA06F01F000FA242001F009F910BD63
:10162800003801400004004808B5074B1860FFF770
:10163800A5FBFFF73FFF054AD2F8803043F000636F
:10164800C2F88030002008BD9C0200200008005825
:1016580008B54FF0B0431A6C42F480421A641A6C11
:1016680022F480421A640448FFF7C2FF0F2001F0F9
:10167800DFF8002008BD00BF0802002008B50A46B0
:101688000146024803F02CFA002008BD0802002099
:1016980010B582B0124B18604FF40013009302ABE0
:1016A80013E906000F4804F084FA0E4B1B68DA6948
:1016B80012F4803FF9D1DA6912F4800FFBD09A68EE
:1016C80042F480029A60074C204604F0B3FA0122E3
:1016D8000549204604F0FEF9002002B010BD00BF05
:1016E8009802002008020020A002002008B5074840
:1016F80004F029F920B9064801F01CF918B908BD09
:10170800FFF75DFBF7E7FFF75AFBF8E70802002051
:10171800A801002008B5024B1B680020984708BDA7
:101728009C02002010B50446074B1B682BB1D0F86B
:101738008C2012B901210548984701220349204607
:1017480004F0C8F910BD00BF98020020A0020020D4
:1017580008B5FFF7B1FC00F05BF908BD08B54FF01C
:10176800FF300EF0D7FE08BD7047704700283CD008
:1017780010B584B0044603780BB904B010BD1B48FB
:101788000FF008F91A4B0022114602200EF064FDF2
:10179800237B94F9042094F9141003910292019385
:1017A800A3680093134B0022114603200EF054FD4A
:1017B800114B0022114603200EF04EFDA378012B99
:1017C8000CD1E37843B10D4B00930D4B0022114629
:1017D80003200EF041FDD0E70A4BF5E70A4B002243
:1017E800114603200EF038FDC7E77047C8030020F4
:1017F80034100108681001089C1001083010010815
:10180800AC10010828100108C010010808B5002113
:1018180002200EF04BFE02480FF0BCF808BD00BFD6
:10182800E003002008B5002101200EF03FFE08BDAE
:1018380070B586B00C46054658B330480FF0AAF884
:101848002F4B0022114602200EF006FD94F90C20C1
:101858002B7894F9021094F9030094F90460059622
:10186800049003910293274B53F822300193A36805
:101878000093254B0022114603200EF0EDFC2B7837
:10188800022B1DD0032B02D16B78012B04D006B09C
:1018980070BD0029D1D1FAE76B681B78012B07D0FE
:1018A800022B09D0002BF2D1002004F0F7FBEEE761
:1018B800012004F0F3FBEAE7022004F0EFFBE6E77F
:1018C8006B78012BE3D16B681B7803F001030F4A97
:1018D80013704BB90E4B0022114603200EF0BCFCCE
:1018E800002000F0BFF9D2E70A4B0022114603207E
:1018F8000EF0B2FC002000F0ABF9C8E7B0030020FE
:10190800D0100108A4120108041101089603002050
:101918004C1101085811010840B310B5044690F95C
:101928000130E3B912480EF0DBFF002000F09AF90D
:10193800104B0022114602200EF08EFCA378012BDA
:1019480006D00D4B0022114602200EF085FC0CE05B
:101958000A4B0022114602200EF07EFC05E0084BDF
:101968000022114602200EF077FC10BD704700BF20
:1019780098030020641101089C1101087C110108DA
:10198800BC11010800B585B00021039119484268CF
:10199800AA231370426853704368997043682122E0
:1019A800DA70436835221A71436828225A714368ED
:1019B8001F229A71072343700B4603AA04F01AFCEE
:1019C80020B1039B4BB905B05DF804FB0A4B01221B
:1019D800002110460EF040FCF5E7084AA2FB03235D
:1019E8009B090093064B0122002110460EF034FC9F
:1019F800E9E700BF00000020D8110108D34D6210AC
:101A0800E811010808B5002000F036F908BD00000B
:101A18002DE9F04385B0002000F0F2F8002402948C
:101A2800012501950095394B2246214602200EF0EA
:101A380013FC02940323019302260096344B22469A
:101A4800214630460EF008FC029401950095314B72
:101A58002246214630460EF0FFFBDFF8BC9000948A
:101A68002E4B22464FF0FF3148460EF0DBFEDFF8E2
:101A7800B08000942B4B22464FF0FF3140460EF0C9
:101A8800D1FE294F0094294B2A464FF0FF313846A2
:101A98000EF0C8FE4FF4FA7148460EF0C1FF4FF43D
:101AA800FA7140460EF0BCFF4FF4FA7138460EF05A
:101AB800B7FF1F4A214628460EF0B4FD1D4A2146AD
:101AC80030460EF0AFFD00F049F81B4804F04CFD1D
:101AD8001A4804F0EBF938460EF05CFF304604F083
:101AE8003FFB174D0094174B22464FF0FF31284615
:101AF8000EF098FE47F2305128460EF091FF284626
:101B08000EF048FF05B0BDE8F08300BF08120108D9
:101B18002812010848120108C8030020711700089C
:101B2800B003002073170008980300200D1A00085E
:101B3800716000088D190008080000203C00002092
:101B4800E003002015180008B0F5005F00D07047CA
:101B580008B5002102200EF0A9FC08BD064B0022A2
:101B68001A605A609A60DA6020225A604FF49072C4
:101B78005A6003221A607047F80300200048704733
:101B8800F803002008B500F081F808BD08B500F09A
:101B9800B1F808BD08B500F0E9F808BD08B500F0CF
:101BA800E7F808BD08B500F0E5F808BD0D4885461A
:101BB80000F0E2F80C480D490D4A002302E0D45821
:101BC800C4500433C4188C42F9D30A4A0A4C00237F
:101BD80001E013600432A242FBD30FF0E1F8FFF7F3
:101BE80036F9FEE70080002000000020DC0000201D
:101BF800A01C0108DC000020581A0020FEE70000A5
:101C0800F0B587B0002401940294039404940594D9
:101C18004FF0B043DA6C42F00202DA64DB6C03F096
:101C280002030093009B20260196012702970223B6
:101C38000493064D01A9284601F07EF83A4631463C
:101C4800284601F0C9F9204607B0F0BD0004004855
:101C580008B500222021024801F0BEF9002008BD85
:101C68000004004808B501222021024801F0B4F917
:101C7800002008BD0004004808B52021024801F0F2
:101C8800B0F9002008BD00BF0004004870B586B058
:101C98000024019402940394049405944FF0B043F3
:101CA800DA6C42F00102DA64DB6C03F001030093A2
:101CB800009B10250195012302930323049301A996
:101CC8004FF0904001F038F82026019601A94FF016
:101CD800904001F031F8224631464FF0904001F033
:101CE8007BF9224629464FF0904001F075F92046CD
:101CF80006B070BD08B503280FD8DFE800F0021061
:101D08001D2A002210214FF0904001F065F90022B1
:101D180020214FF0904001F05FF9002008BD01221A
:101D280010214FF0904001F057F9002220214FF088
:101D3800904001F051F9F0E7012210214FF0904056
:101D480001F04AF9012220214FF0904001F044F9B6
:101D5800E3E7002210214FF0904001F03DF9012205
:101D680020214FF0904001F037F9D6E70220704764
:101D780001207047012070477047000010B503200C
:101D880000F0FEFC01F0CEFA064B18600F20FFF7BA
:101D980043FA10B10124204610BD0446FFF704F9A8
:101DA800F9E700BF4C000020034B1B78034A116879
:101DB8000B441360704700BF500000200804002047
:101DC8004FF0E022136923F00203136170474FF0CC
:101DD800E022136943F0020313617047014BD3F803
:101DE800900570470070FF1F014BD3F894057047AA
:101DF8000070FF1F014BD3F8980570470070FF1F54
:101E0800024A536823F0010353607047002004E03E
:101E1800024A536823F0020353607047002004E02D
:101E2800024A536823F0040353607047002004E01B
:101E380070B582B000230193002800F02881044681
:101E4800836DBBB12268936813F0805F1FD19368DC
:101E580023F0104323F0170343F0805393608D4B16
:101E68001B689B098C4AA2FB03239B0901335B0077
:101E7800019309E0FEF7ACFE0023E36584F85430D3
:101E8800E0E7019B013B0193019B002BF9D12268FC
:101E9800936813F0805F4BD1A36D43F01003A365E3
:101EA800E36D43F00103E3650120936813F0040335
:101EB80000D00123A16D11F0100F40F0E180002B3C
:101EC80040F0DE80A16D21F4817141F00201A1652D
:101ED800916811F0010F38D1D16821F01801A56877
:101EE8002943D160626802F04042E16C42EA010C89
:101EF80094F83C1001291DD021680D69674A2A40D1
:101F080042EA0C020A616268B2F1404F1ED0B2F197
:101F1800804F1BD0B2F1004F18D0614DD5F808178B
:101F280021F4701102F470120A43C5F808270DE075
:101F38000020BAE7216C0A43616C0A43A16C0A438A
:101F48004CEA020C4CF0010CD6E79C46217E627EDE
:101F5800D20342EA8132A57E42EA4532216B09B1B9
:101F68004FF480510A43E1680A432169002949DB9B
:101F78004FF400110A4394F82C1042EA410294F8F5
:101F88002010012941D0616A21B101F4E071A56AEC
:101F980029430A432568E96821F4FE3121F4F371E5
:101FA8001143E96025682E693E49314041EA0C0138
:101FB80029612668616B756925F0070C41EA0C01F7
:101FC80071612568A66B696921F0700141EA061103
:101FD8006961216931BB21688B6A63F00F038B62E9
:101FE8002368D968304B0B40934240D0A36D23F04F
:101FF800120343F01003A365E36D43F00103E365A7
:10200800012042E021F00041B4E715B942F48032E2
:10201800B9E7A16D41F02001A165E16D41F0010131
:10202800E165B0E7B1F5001FDAD1072B08D8216EBA
:102038009D00E94001F00F010F2901D00133F4E7B9
:10204800012B0ED02568AB6AE369013B9B0003F0C6
:102058001C036FF00F0101FA03F3216E0B43AB620F
:10206800BEE721688B6A63F00F038B62B8E7002331
:10207800E365A36D23F0030343F00103A36504E0C4
:10208800A36D43F01003A365012002B070BD0120C9
:10209800FBE700BF4C000020632D3E0502FCFF1F3C
:1020A8000020014002FCFFDFE7FF3F83F8B504464C
:1020B8000D464669082E05D00368DB6813F0010F4A
:1020C8001ED10426FFF7AAF8074623681A68324289
:1020D8001CD1B5F1FF3FF8D0FFF7A0F8C31BAB4206
:1020E80001D8002DF1D123681B683342EDD1A36DCF
:1020F80043F00403A365002384F85430032028E048
:10210800836D43F020038365012022E0A26D42F431
:102118000072A265DA6812F4406F15D1A27E9AB9EE
:102128001A6812F0080F0FD09A6812F0040F11D134
:102138005A6822F00C025A60A36D23F4807323F0CE
:10214800010343F00103A365207E60B923680C22D4
:102158001A60F8BDA36D43F02003A365E36D43F057
:102168000103E365F0E70020F3E70368186C7047A4
:1021780070B483B000220192046990F85420012AB7
:1021880000F005810346012280F854200268906817
:1021980010F0040F0AD09A6D42F020029A650120CF
:1021A800002283F8542003B070BC704748680228A6
:1021B80000F09E80B4F1004F29D0764DAC4226D075
:1021C8001C6E00F01F000F25854024EA05050C68E9
:1021D800C4F31106002E33D1C4F3846404FA00F06A
:1021E800284318664C68A0080130DD69A84214D855
:1021F8000D68906A04F01F040F26A64020EA060026
:10220800C5F3836505FA04F40443946205E00C6899
:10221800906AC4F31104204390621C680D688A68B0
:10222800606920EA052002EA052222F07C4222F0B9
:10223800FF02024362610A68002A09DB0020AFE757
:1022480094FAA4F414B1B4FA84F4C7E72024C5E7D7
:102258005149D1F8080700F0E071504CA24207D06C
:102268004F4CA24226D04F4CA24232D0002097E7D2
:1022780010F4000FF4D141F400014748D0F80827C2
:1022880022F0E0721143C0F80817474A1268920911
:102298004649A1FB02129209013202EB4202920066
:1022A800019202E0019A013A0192019A002AF9D1B9
:1022B800002075E710F0807FD5D141F08071364855
:1022C800D0F8082722F0E0721143C0F80817002060
:1022D80066E710F4800F58D141F480022E48D0F8F8
:1022E800081721F0E0710A43C0F80827002057E7D3
:1022F800B4F1004F02D02748844206D10C68906A96
:10230800C4F3110420EA040090620A68002A01DB81
:10231800002045E72049D1F808172048824207D015
:102328001F48824213D01F4882421FD0002037E73F
:1023380001F0A07100F1104000F58830D0F80827AE
:1023480022F0E0721143C0F80817002028E701F4D2
:10235800400200F1084000F56040D0F8081721F06D
:10236800E0710A43C0F80827002019E701F0C0729D
:1023780000F10C4000F58030D0F8081721F0E0712A
:102388000A43C0F8082700200AE7002008E70220CF
:1023980009E700BF0400008000200140001000B0E1
:1023A800004000B8002000B44C000020632D3E051A
:1023B80038B503689A6812F0040F2AD004469A6860
:1023C80012F0020F07D19A6822F0004222F0170299
:1023D80042F010029A60FEF721FF054623689B68C9
:1023E80013F0040F13D0FEF719FF431B022BF5D986
:1023F80023689B6813F0040FF0D0A36D43F010031B
:10240800A365E36D43F00103E365012002E00020CA
:1024180000E0002038BD000030B583B000230193F0
:1024280003689A6812F0010F5BD1044699682E4A36
:10243800114217D19A6822F0004222F0170242F0A6
:1024480001029A60294BD3F8083713F4000F19D00A
:10245800274B1B689B09274AA2FB03239B090133CF
:1024680001930CE0836D43F010038365C36D43F063
:102478000103C365012035E0019B013B0193019BEA
:10248800002BF9D1637E012B01D100202AE0FEF751
:10249800C5FE054623681A6812F0010F1FD19A6815
:1024A80012F0010F07D19A6822F0004222F01702B9
:1024B80042F001029A60FEF7B1FE401B0228E9D9FA
:1024C80023681B6813F0010FE4D1A36D43F01003D8
:1024D800A365E36D43F00103E365012002E00020FA
:1024E80000E0002003B030BD17000080002001404C
:1024F8004C000020632D3E0503689B6813F0040F11
:1025080028D110B5044690F85430012B24D001236B
:1025180080F85430FFF780FFC0B9A36D23F47063CF
:1025280023F0010343F48073A3650023E365226865
:102538001C21116084F854302268936823F000430A
:1025480023F0170343F00403936010BD002384F8BD
:102558005430FAE7022070470220F6E738B50446FF
:102568000268936813F0020300D00123916811F008
:10257800010F39D0002B39D1936803F00503012BE3
:1025880009D0A36D43F01003A365E36D43F0010385
:10259800E365012029E0936823F0004323F0170343
:1025A80043F002039360236803221A60FEF736FEA5
:1025B800054623689B6813F0010F13D0FEF72EFE23
:1025C800401B0228F5D923689B6813F0010FF0D04F
:1025D800A36D43F01003A365E36D43F00103E365C6
:1025E800012002E0002000E0002038BD0020FCE7C8
:1025F80070B500284CD00446836D43F00203836510
:10260800FFF7D6FE0646002833D02268536823F425
:10261800677323F003035360236840F29F321A6004
:102628002268D1681B4B0B40D3602268136923F0E2
:10263800404313612268536923F0070353612268FA
:10264800136A03F0F023136223689A6A00259D62D7
:10265800114AD2F8083723F0FE73C2F8083720462B
:10266800FEF7CCFA2566E565A56584F85450304632
:1026780070BD2046FFF772FF064608B90123A3651F
:102688002268936823F0104323F017039360BCE794
:102698000126ECE700023E830020014090F8543008
:1026A800012B19D010B50446012380F85430FFF7E8
:1026B8007FFE18B1002384F8543010BD2046FFF780
:1026C8004DFF0028F6D1A36D23F4807323F0010396
:1026D80043F00103A365EDE70220704710B582B00F
:1026E8000023019390F85430012B46D0044601236F
:1026F80080F85430FFF732FF23689A6812F0010F10
:1027080008D0A36D43F01003A365002384F8543068
:1027180002B010BDA26D22F4817242F00202A265DD
:10272800DA6802F0030CDA6822F00302DA60216842
:102738008B6843F000438B602368996800290ADBA3
:10274800DA6842EA0C02DA60A36D23F0030343F06F
:102758000103A365D9E7019B01330193019BB3F5FD
:102768002E3FE9D3A36D23F0120343F01003A365B2
:10277800002384F854300120CAE70220C8E700008B
:10278800074AD36823F4E0631B041B0C000200F41F
:10279800E060034343F0BF6343F40033D360704702
:1027A80000ED00E000B5194BDB68C3F30223C3F169
:1027B800070CBCF1040F28BF4FF0040C03F1040E02
:1027C800BEF1060F18D9033B4FF0FF3E0EFA0CFC82
:1027D80021EA0C0199400EFA03F322EA0303194394
:1027E80000280BDB0901C9B200F1604000F5614027
:1027F80080F800135DF804FB0023E5E700F00F0004
:102808000901C9B2024B1954F4E700BF00ED00E01A
:1028180014ED00E0002807DB00F01F024009012347
:102828009340024A42F82030704700BF00E100E0C0
:1028380000280CDB00F01F024009012393402030E0
:10284800034A42F82030BFF34F8FBFF36F8F7047B2
:1028580000E100E010B4C46CD0F850C0C4F804C063
:10286800446D24B1846DD0F85CC0C4F804C0446CD5
:1028780004F01C0C012404FA0CF4D0F840C0CCF885
:102888000440046863608368102B05D0036899606E
:102898000368DA6010BC704703689A600368D960FF
:1028A800F8E700000368144A934216D8426C22F0F5
:1028B800030202F1804202F502328264DBB2083B75
:1028C8000E4AA2FB03231B090D4AC26403F01F032F
:1028D800012202FA03F303657047426C22F00301F8
:1028E800084A0A448264DBB2083B044AA2FB032379
:1028F8001B090733E8E700BF07040240CDCCCCCC66
:10290800800802401C080240436803F07F03074A1E
:102918001A4492004265064A8265013B03F00303AC
:10292800012202FA03F3C365704700BF3F8200101B
:1029380040090240002860D010B504460268304BB8
:102948009A4242D82F4B13442F49A1FB03131B096A
:102958009B0043642D4B0364022384F825301368DD
:1029680023F4FF4323F07003136021680A68A36807
:10297800E06803432069034360690343A069034394
:10298800E0690343206A034313430B602046FFF7C3
:1029980089FFA368B3F5804F22D06368A26C03F067
:1029A8007F031360E36C226D5A606368013B032B5D
:1029B80019D900236365A365E3650020E06301235B
:1029C80084F8253084F8240010BD114B13440E49B7
:1029D800A1FB03131B099B0043640E4B0364BBE775
:1029E80000236360D9E72046FFF78EFF636D00225E
:1029F8001A60A36DE26D5A60DFE70120704700BFDF
:102A080007040240F8FFFDBFCDCCCCCC000002404B
:102A1800F8FBFDBF0004024000284BD038B504463F
:102A28000268136823F0010313600268224B9A427C
:102A38002CD8224B13442249A1FB03131B099B00EA
:102A48004364204B036400251560636C03F01C028B
:102A5800216C012393404B602046FFF723FFA36CB2
:102A68001D60E36C226D5A606368013B032B18D923
:102A780000206065A065E065E06220636063A06394
:102A8800E06384F8250084F8240038BD0E4B134415
:102A98000B49A1FB03131B099B0043640B4B036405
:102AA800D1E72046FFF730FF636D1D60A36DE26D2F
:102AB8005A60DDE70120704707040240F8FFFDBFB8
:102AC800CDCCCCCC00000240F8FBFDBF0004024096
:102AD80038B5044690F82400012843D0012084F832
:102AE800240094F82500C0B2012806D08023E363AF
:102AF800002384F82430012038BD022084F8250002
:102B08000020E0632568286820F00100286020463E
:102B1800FFF7A0FE236BD3B12268136843F00E03BE
:102B28001360A36C1A6812F4803F03D01A6842F449
:102B380080721A60636D1BB11A6842F480721A6061
:102B48002268136843F0010313600020D4E7226869
:102B5800136823F0040313602268136843F00A0320
:102B68001360DEE70220C7E70346002834D090F858
:102B78002520D2B2022A06D00422C263002280F89D
:102B880024200120704701680A6822F00E020A60BA
:102B9800816C0A6822F480720A6001680A6822F06F
:102BA80001020A60426C02F01C01006C01228A409A
:102BB8004260DA6C196D51605A6D32B1116821F4B6
:102BC800807111609A6DD96D5160012283F82520BA
:102BD800002083F8240070470120704708B590F85A
:102BE8002530DBB2022B03D00423C363012008BDC8
:102BF8000268136823F00E0313600268136823F059
:102C080001031360826C136823F480731360436CB0
:102C180003F01C02016C012393404B60C36C026DEE
:102C28005A60436D33B11A6822F480721A60836D5A
:102C3800C26D5A60012380F82530002380F82430C3
:102C4800836B13B198470020D1E70020CFE700003D
:102C580038B5036C196804682568436C03F01C03D5
:102C680004229A400A4215D015F0040F12D02368A6
:102C780013F0200F03D1236823F004032360436C6F
:102C880003F01C02016C042393404B60036B03B1F7
:102C9800984738BD02229A400A4228D015F0020F00
:102CA80025D0236813F0200F06D1236823F00A03E8
:102CB8002360012380F8253002681C4B9A420ED904
:102CC800436C03F01C0202239340194A536000230B
:102CD80080F82430C36A002BDBD09847D9E7436CCF
:102CE80003F01C0202239340124A5360EFE70822C4
:102CF80002FA03F30B42CCD015F0080FC9D02368B1
:102D080023F00E032360436C03F01C03016C0122C3
:102D180002FA03F34B60C26380F82520002380F891
:102D28002430436B002BB4D09847B2E780000240B0
:102D3800000402400000024070B5002369E0856885
:102D48005E000324B44025EA0405CC68B4402C4353
:102D58008460446824EA0C0C4C68C4F300149C405A
:102D680044EA0C04446065E0DD08083550F8256045
:102D780003F007044FEA840C0F2404FA0CF426EA43
:102D8800040E0C6904FA0CF444EA0E0440F82540D9
:102D980067E0022400E0002404FA0EF42C430CF14E
:102DA800020C4B4D45F82C404A4CD4F88050D44383
:102DB80025EA0206D1F804C01CF4803F01D042EA9B
:102DC8000506444DC5F88060D5F8845004EA050628
:102DD800D1F804C01CF4003F01D042EA05063D4D7D
:102DE800C5F884602D6804EA0506D1F804C01CF40F
:102DF800801F01D042EA0506364D2E606D682C40D2
:102E08004E6816F4001F01D042EA0504314A5460A6
:102E180001330A6832FA03F458D04FF0010C0CFA67
:102E280003FC1CEA0202F3D04C6804F00304013CE2
:102E3800012C84D94C6804F00304032C0CD0C4681A
:102E48005D004FF0030C0CFA05FC24EA0C0C8C68AE
:102E5800AC4044EA0C04C4604C6804F00304022C3F
:102E680082D004684FEA430E4FF0030C0CFA0EFCB4
:102E780024EA0C0C4C6804F0030404FA0EF444EA47
:102E88000C0404604C6814F4403FC1D04FEA930C22
:102E98000CF102050E4C54F8255003F003044FEAD8
:102EA800840E072404FA0EF425EA0405B0F1904FC5
:102EB8003FF471AF084CA04206D004F58064A042EC
:102EC8003FF467AF072467E7012465E770BD00BFDB
:102ED800000001400008005800040048002331FAAF
:102EE80003F271D0F0B52EE0022500E0002505FAC6
:102EF8000CFCA44549D004685D004FF0030C0CFAA3
:102F080005FC44EA0C0404604FEAD30E0EF1080EE7
:102F180050F82E4003F00705AE000F25B54024EA0F
:102F2800050440F82E40846824EA0C048460446850
:102F380024EA02024260C26822EA0C02C26001333B
:102F480031FA03F23FD001229A4012EA0107F6D083
:102F58009E08B51C1D4C54F8254003F0030C4FEA9D
:102F68008C0C4FF0070E0EFA0CFE0EEA0404B0F1BA
:102F7800904FBBD0164DA84205D005F58065A842F4
:102F8800B2D00725B3E70125B1E7124CD4F8805039
:102F980025EA0705C4F88050D4F8845025EA0705C7
:102FA800C4F88450256825EA07052560656825EA80
:102FB80007076760054D023655F8264024EA0E04D7
:102FC80045F8264097E7F0BD704700BF0000014074
:102FD80000040048000800580AB181617047816206
:102FE8007047436901EA030221EA030141EA024109
:102FF8008161704708B5054BDB68034200D108BD05
:10300800024BD860FEF7A0FDF9E700BF00080058A2
:10301800024A136843F48073136070470004005831
:1030280010B50C46A0B90F4B5B6913F4007F0AD1A9
:103038000D4A136923F004031361012C10D040BF1B
:1030480020BF20BF10BD00F021F80028F0D0F9E71C
:10305800044B5B6913F4007FEAD100F00FF8E7E74F
:1030680030BFEFE70004005800ED00E0024B18689D
:1030780000F4C060704700BF00040058024A13689B
:1030880043F4804313607047000400580F4A1368E4
:1030980023F4804313600E4B1B68322202FB03F3B8
:1030A8000C4AA2FB03239B0C00E0013B074A526930
:1030B80012F4007F01D0002BF7D1044B5B6913F4A5
:1030C800007F01D10020704703207047000400589A
:1030D8004C00002083DE1B430C4A136823F00703CF
:1030E80043F0020313600A4A136943F004031361AF
:1030F800012808D040BF20BF20BF054A136923F02C
:1031080004031361704730BFF7E700BF000400589D
:1031180000ED00E030B589B004468C462A4B93E8B0
:1031280003000690ADF81C1003F1080292E80300B2
:103138000490ADF8141001AD103393E8070085E84A
:103148000700BCF5007F07D0002314E008AA02EBB3
:10315800830353F81C5C1EE00023022B08D808AA3E
:1031680002EB430232F8082CA242EFD20133F4E713
:10317800002510E00133022B0CD808AA02EB430209
:1031880032F8102CA242F5D308AA02EB830353F8B5
:103198001C5C00E000250D4A136823F007032B434D
:1031A8001360FEF73BF80446084B1B6803F007035F
:1031B800AB4206D0FEF732F8001B0228F4D90320F0
:1031C80000E0002009B030BD180F01080040005889
:1031D80010B5C0F303100C4B53F820404FF0B04328
:1031E800D3F8083103F00F03084A52F82300B4FB60
:1031F800F0F4FFF73BFF01460548A0FB0430800CC4
:10320800FFF788FF10BD00BF1C130108BC1201089E
:1032180083DE1B434FF0B0439968DB6803F0030378
:1032280011F00C010AD00C2906D0042947D008292E
:103238003BD00022104626E0012BF6D14FF0B043D8
:103248001B6813F008030DD04FF0B0431B6813F050
:10325800080324D14FF0B042D2F894202E4A52F8F5
:1032680023200EE04FF0B042126812F0080F12D17E
:103278004FF0B043D3F89430C3F30323264A52F8EF
:103288002320D1B100204FF0B0439B6803F00C031A
:103298000C2B1AD070474FF0B0421268EEE74FF08F
:1032A800B0431B68C3F30313D8E74FF0B0431A6861
:1032B80012F4801206D11948E5E71046E3E7002228
:1032C8001748E0E700221648DDE74FF0B043DB6817
:1032D80003F00303022B09D0032B08D14FF0B043AE
:1032E8001B6813F4801F15D10C4A00E00C4A4FF0FC
:1032F800B043D868C0F3062000FB02F2D868C0F3D8
:1033080002100130B2FBF0F2D868400F0130B2FB76
:10331800F0F0BFE7024AEAE71C1301080048E80199
:103328000024F40008B5FFF775FF4FF0B0439B6821
:10333800C3F30313024A52F82330B0FBF3F008BD7D
:10334800BC120108002800F01983F8B504464FF0B4
:10335800B0439D6805F00C05DE6806F003060368B7
:1033680013F0200F00F08F80EDB10C2D19D0236AD7
:10337800002B00F0BC804FF0B042136843F001030B
:103388001360FDF74BFF07464FF0B0431B6813F07F
:10339800020F65D1FDF742FFC01B0228F4D90320B4
:1033A800F9E2012EE3D14FF0B0431B6813F0020F8E
:1033B80003D0236A002B00F0E382A06A4FF0B043E9
:1033C8001B6813F0080F29D04FF0B0431B6803F0B7
:1033D800F00398422AD9FFF7FBFE002840F0D2827A
:1033E8004FF0B0431A6842F008021A601A6822F0D7
:1033F800F002A16A0A431A60616A5A6822F47F429D
:1034080042EA01225A60FFF78DFFB04B1860B04BBB
:103418001868FDF701FF002835D0BCE24FF0B04333
:10342800D3F894301B0903F0F003D2E74FF0B04310
:103438001A6842F008021A601A6822F0F002A16ABB
:103448000A431A60616A5A6822F47F4242EA0122FA
:103458005A60A06AFFF7BCFE0028D4D001209AE287
:103468004FF0B0431A6842F008021A601A6822F056
:10347800F002A16A0A431A60616A5A6822F47F421C
:1034880042EA01225A60236813F0010F51D0082D37
:1034980045D00C2D41D04FF0B042136823F480136F
:1034A800A1680B4313606368B3F5803F63D0B3F53D
:1034B800041F65D04FF0B0431A6822F480321A60B6
:1034C8001A6822F400121A606368002B63D0FDF7B3
:1034D800A5FE07464FF0B0431B6813F4003F28D100
:1034E800FDF79CFEC01B6428F4D9032053E24FF07B
:1034F800B042136823F001031360FDF78FFE0746FF
:103508004FF0B0431B6813F0020FBCD0FDF786FEE6
:10351800C01B0228F4D903203DE2032EBBD14FF093
:10352800B0431B6813F4003F03D06368002B00F01E
:103538002B82236813F0020F52D0042D3DD00C2D9E
:1035480039D02369002B00F091804FF0B042136806
:1035580043F480731360FDF761FE06464FF0B043F5
:103568001B6813F4806F77D1FDF758FE801B022883
:10357800F4D903200FE2136843F480331360A3E700
:103588004FF0B0431A6842F400121A601A6842F405
:1035980080321A6098E7FDF741FE07464FF0B043C6
:1035A8001B6813F4003FC4D0FDF738FEC01B642825
:1035B800F4D90320EFE1022EC3D14FF0B0431B68CA
:1035C80013F4806F03D02369002B00F0DF81616959
:1035D8004FF0B042536823F0FE4343EA016353605F
:1035E800236813F0080F00F08E80A369002B71D0B8
:1035F8004FF0B043D3F89430E16903F010029142E0
:1036080011D003F00302022A00F0C28113F0010F67
:1036180042D14FF0B042D2F8943023F01003E16960
:103628000B43C2F894304FF0B042D2F8943043F0D4
:103638000103C2F89430FDF7F1FD06464FF0B043A0
:10364800D3F8943013F0020F5DD1FDF7E7FD801B2E
:103658001128F3D903209EE161694FF0B042536805
:1036680023F0FE4343EA01635360B9E74FF0B042E9
:10367800136823F480731360FDF7D0FD06464FF0FE
:10368800B0431B6813F4806FAAD0FDF7C7FD801BF9
:103698000228F4D903207EE14FF0B042D2F89430EA
:1036A80023F00103C2F89430FDF7B8FD06464FF049
:1036B800B043D3F8943013F0020FAAD0FDF7AEFD53
:1036C800801B1128F3D9032065E100BF4C000020BE
:1036D800540000204FF0B042D2F8943023F0010398
:1036E800C2F89430FDF79AFD06464FF0B043D3F880
:1036F800943013F0020F06D0FDF790FD801B1128BF
:10370800F3D9032047E1236813F0040F00F0B180D8
:10371800A84B1B6813F4807F10D1FFF779FCFDF7E5
:103728007DFD0646A34B1B6813F4807F06D1FDF789
:1037380075FD801B0228F5D903202CE1E368002BD6
:1037480061D0852B01D0052B07D14FF0B042D2F8BC
:10375800903043F00403C2F89030FDF75FFD064651
:103768004FF0B042D2F8903043F00103C2F89030E5
:103778004FF0B043D3F8903013F0020F08D1FDF7A3
:103788004DFD801B41F288339842F1D9032002E1B4
:10379800E368812B01D0852B1AD1FDF73FFD064642
:1037A8004FF0B042D2F8903043F08003C2F8903026
:1037B8004FF0B043D3F8903013F4006F59D1FDF7B0
:1037C8002DFD801B41F288339842F1D90320E2E0B5
:1037D800FDF724FD06464FF0B042D2F8903023F0B2
:1037E8008003C2F890304FF0B043D3F8903013F410
:1037F800006F3ED0FDF712FD801B41F288339842DE
:10380800F1D90320C7E0FDF709FD06464FF0B042A5
:10381800D2F8903023F08003C2F890304FF0B043D4
:10382800D3F8903013F4006F08D0FDF7F7FC801B35
:1038380041F288339842F1D90320ACE0FDF7EEFC61
:1038480006464FF0B042D2F8903023F00103C2F898
:1038580090304FF0B043D3F8903013F0020F08D0F7
:10386800FDF7DCFC801B41F288339842F1D9032034
:1038780091E0E36A002B00F08D800C2D62D0022BC2
:103888001FD04FF0B0431A6822F080721A60DA68CD
:1038980022F00302DA60DA6822F0885222F48032D9
:1038A800DA60FDF7BBFC04464FF0B0431B6813F029
:1038B800007F73D0FDF7B2FC001B0A28F4D903205F
:1038C80069E04FF0B042136823F080731360FDF78E
:1038D800A5FC05464FF0B0431B6813F0007F2AD1C2
:1038E8004FF0B042D36834491940236B606B0343EF
:1038F800A06B43EA0023E06B0343206C0343606C36
:1039080003430B43D360136843F080731360D36899
:1039180043F08053D360FDF781FC04464FF0B04379
:103928001B6813F0007F37D1FDF778FC001B0A28CD
:10393800F4D903202FE0FDF771FC401B0A28C9D9F0
:10394800032028E0012B2BD04FF0B043DB6803F0B5
:103958000301226B914225D103F07002616B8A4208
:1039680022D103F4FE42A16BB2EB012F1ED103F06A
:103978006043626C93421BD100200CE00120704729
:10398800012008E0012006E0012004E0012002E017
:10399800012000E00020F8BD0020FCE70020FAE745
:1039A8000120F8E70120F6E70120F4E70120F2E71B
:1039B8000120F0E7000400588C80C111002800F0B5
:1039C800048170B50C460546824B1B6803F007035B
:1039D8008B4227D32B6813F0020F39D12B6813F0D1
:1039E800400F4DD12B6813F0040F65D12B6813F0ED
:1039F800080F79D12B6813F0010F00F0C1806B68B4
:103A0800022B00F08B80032B00F09080002B40F0FD
:103A180095804FF0B042126812F0020F40F0948087
:103A28000120D1E06B4A136823F007030B431360AE
:103A3800FDF7F4FB0646674B1B6803F00703A34238
:103A4800C8D0FDF7EBFB801B0228F4D90320BBE0AC
:103A5800AB684FF0B0418A6822F0F00213438B60E4
:103A6800FDF7DCFB06464FF0B0439B6813F4803F3C
:103A7800B4D1FDF7D3FB801B0228F4D90320A3E0BF
:103A880069694FF0B042D2F8083123F00F0343EAD6
:103A98001113C2F80831FDF7C1FB06464FF0B043D9
:103AA800D3F8083113F4803F9CD1FDF7B7FB801B96
:103AB8000228F3D9032087E0EB684FF0B0418A6809
:103AC80022F4E06213438B60FDF7A8FB06464FF033
:103AD800B0439B6813F4003F88D1FDF79FFB801B20
:103AE8000228F4D903206FE029694FF0B0429368A7
:103AF80023F4605343EAC1039360FDF78FFB064646
:103B08004FF0B0439B6813F4802F7FF473AFFDF739
:103B180085FB801B0228F3D9032055E04FF0B04203
:103B2800126812F4003F0FD101204DE04FF0B0426F
:103B3800126812F0007F07D1012045E04FF0B04233
:103B4800126812F4806F42D04FF0B0418A6822F0B8
:103B5800030213438B60FDF761FB06464FF0B04349
:103B68009B6803F00C036A68B3EB820F08D0FDF77B
:103B780055FB801B41F288339842EFD9032023E09C
:103B8800144B1B6803F00703A34215D9114A1368A5
:103B980023F0070323431360FDF740FB05460D4B55
:103BA8001B6803F00703A34206D0FDF737FB401B51
:103BB8000228F4D9032007E0FFF7B4FB064B18608E
:103BC800064B1868FDF728FB70BD012070470120DF
:103BD800FAE700BF004000584C00002054000020C5
:103BE80008B5FFF79FFB4FF0B0439B68C3F3022370
:103BF800024A52F82330D84008BD00BFFC12010821
:103C080008B5FFF78FFB4FF0B0439B68C3F3C2239F
:103C1800024A52F82330D84008BD00BFFC12010800
:103C280070B50446036813F4803F40F0AB8000256C
:103C3800236813F0010F0AD062684FF0B041D1F841
:103C4800883023EA124392B21343C1F888302368BC
:103C580013F0020F0AD0A2684FF0B041D1F88830B3
:103C680023EA124392B21343C1F88830236813F051
:103C7800200F09D023694FF0B041D1F8882022F4F1
:103C880040621343C1F88830236813F4007F0CD0D6
:103C9800206A4FF0B041D1F88830020C120423EAB0
:103CA800020343EA0043C1F88830236813F4806FA5
:103CB8000CD0606A4FF0B041D1F88830020C120481
:103CC80023EA020343EA0043C1F88830236813F467
:103CD800006F0CD0A06A4FF0B041D1F88830020CC8
:103CE800120423EA020343EA0043C1F88830236838
:103CF80013F0400F40F09E80236813F0800F40F0CF
:103D0800AA80236813F4807F40F0B680236813F0FC
:103D1800100F0ED0E3684FF0B041D1F8882022F49C
:103D280040721343C1F88830E368B3F5807F00F030
:103D3800B480236813F4004F0FD0236B4FF0B041C9
:103D4800D1F8882022F040421343C1F88830236B11
:103D58001BB9CB6843F08073CB60236813F4804FA2
:103D68000ED0E36A4FF0B041D1F8882022F04052DB
:103D78001343C1F88830E36AB3F1005F00F0928022
:103D8800284670BDFFF744F9FDF748FA0546484B49
:103D98001B6813F4807F06D1FDF740FA401B022808
:103DA800F5D9032500E00025002D7FF441AF4FF041
:103DB800B043D3F8903003F44073626B9A4224D036
:103DC8004FF0B043D3F8902022F44072D3F890100B
:103DD80041F48031C3F89010D3F8901021F4803169
:103DE800C3F89010C3F8902012F0020F0FD1002DE5
:103DF8007FF41EAF636B4FF0B041D1F8902022F4EE
:103E080040721343C1F8903012E70022ECE7FDF747
:103E180005FA06464FF0B043D3F8903013F0020F7E
:103E2800E5D1FDF7FBF9801B41F288339842F1D9BF
:103E38000325DCE763694FF0B040D0F88820190902
:103E480001F47F2122EA01021B0103F47F231343BB
:103E5800C0F8883050E7A3694FF0B040D0F8882008
:103E6800190901F47F2122EA01021B0103F47F23CF
:103E78001343C0F8883044E7E3694FF0B040D0F806
:103E88008820190901F47F2122EA01021B0103F4A9
:103E98007F231343C0F8883038E7CB6843F080733A
:103EA800CB6046E7CB6843F48033CB6068E700BF5C
:103EB8000004005890F82C30012B36D0012380F8EC
:103EC8002C30022380F82D30194BCA225A62532213
:103ED8005A62B1F5807F19D0154B9A6922F40852BD
:103EE8009A61DA6C22F00042DA64026B22F0020274
:103EF80002630222DA650E4BFF225A62012380F820
:103F08002D30002380F82C30184670479A6922F427
:103F180088529A615A6C22F000425A64026B22F06D
:103F2800010202630122DA65E5E70220704700BF5B
:103F38000028004038B504460D4B5D6D036B1D40ED
:103F480015F0010F06D115F0020F09D1012384F8ED
:103F58002D3038BD064B0122DA65FDF79FFAF2E7EE
:103F6800034B0222DA65204600F0E6F9EEE700BFCF
:103F78000028004010B50B4AD36823F02003D36013
:103F8800FDF74CF90446074BDB6813F0200F07D107
:103F9800FDF744F9001BB0F57A7FF4D9032000E05F
:103FA800002010BD0028004070B5114BDB6813F0ED
:103FB800400F02D00024204670BD06460C4AD36844
:103FC80043F08003D360FDF729F905460024084B28
:103FD800DB6813F0400FEED1032CECD0FDF71EF98F
:103FE800431BB3F57A7FF2D9032486F82D40EEE718
:103FF8000028004010B50446114BDA6822F0800210
:10400800DA609B6913F0200F07D1FFF7B3FF03466F
:10401800A0B1032384F82D3010E0094A936923F0F6
:1040280020039361FFF7A6FF034610B1032384F82A
:104038002D3003498A6942F020028A61184610BD72
:104048000028004000284AD038B5044690F82D30A2
:104058009BB1022384F82D30224BCA225A62532284
:104068005A622046FFF7A0FF60B11E4BFF225A623A
:1040780010B9012384F82D3038BD80F82C30FCF7B6
:1040880033FFE6E7174B9A6922F08E6222F040026E
:104098009A619969626820690243A06902430A43E8
:1040A8009A61E268A16842EA01421A61DA6822F478
:1040B800F852616AA06A01430A43DA602046FFF7B2
:1040C80099FF0028D1D107498B6923F06043226A00
:1040D800E5692A4365692A4313438B61C5E70120D3
:1040E800704700BF00280040002302E001330A386F
:1040F800C0B20928FAD81B01DBB218437047000088
:1041080090F82C30012B00F0B0802DE9F0410546E5
:104118000C46012380F82C30022380F82D30544BB4
:10412800DE6806F44076B6F5807F43D012BB9B6903
:1041380013F0400F01D10023CB70D4F814802078FD
:10414800FFF7D2FF07046078FFF7CEFF47EA0027A2
:10415800A078FFF7C9FF0743E07847EA805794F84B
:104168002400FFF7C1FF47EA0060276A384348EA9E
:10417800000020E04869B0F1803F09D0B0F5000F99
:1041880006D03B4B9B6913F0400F01D10023CB7045
:10419800227863781B0243EA0243A2781343E27849
:1041A80043EA825394F8242043EA0263226A1343C1
:1041B800184300E000202E4BCA225A6253225A624A
:1041C800A36AB3F5807F2AD0294B9A6922F4085252
:1041D8009A610222DA65B6F5807F40D0244B986454
:1041E800A269DA646268224B5A672A6B42F00202BB
:1041F8002A639A6942F408529A611E4AD2F88030BA
:1042080043F40033C2F88030194BFF225A6201236D
:1042180085F82D30002085F82C00BDE8F081144B7E
:104228009A6922F488529A610122DA65B6F5807F8C
:104238000FD00F4B1864A2695A6462680C4B1A6756
:104248002A6B42F001022A639A6942F488529A6101
:10425800D3E7A369E2691343054A5364EDE7A36909
:10426800E2691343024AD364BCE70220704700BFE7
:10427800002800400008005890F82C30012B17D077
:10428800012180F82C10022380F82D30094BCA2216
:104298005A6253225A629A6942F020029A61FF22B6
:1042A8005A6280F82D10002380F82C301846704789
:1042B800022070470028004090F82C30012B20D0B5
:1042C80010B4012180F82C10022380F82D300E4BF9
:1042D800CA225A6253225A629A6942F080029A614B
:1042E8000A4CD4F8802042F48022C4F88020FF22AF
:1042F8005A6280F82D10002380F82C30184610BC24
:1043080070470220704700BF00280040000800588E
:1043180010B50446074B5B6D13F0400F03D1012322
:1043280084F82D3010BD034B4022DA65FDF7BAF84A
:10433800F5E700BF002800407047890001F180417F
:1043480001F531410A607047890001F1804101F5AA
:104358003141086870470000074B1A6822F0400294
:104368001A6040F4417018604FF4B8525A601A68E5
:1043780042F040021A6070470000015830B583B01F
:1043880000284ED004468379002B3BD00223A3712A
:104398004FF0B042D2F8943023F40043C2F894307E
:1043A800214B1B68C3EBC303C3F34C43642202FBDA
:1043B80003F30193019B4BB3019B013B01934FF026
:1043C800B043D3F8943013F4804FF3D10025174B42
:1043D800D3F8902042F40042C3F890201449D1F851
:1043E800902042F48052C1F890209A6842F400620A
:1043F8009A604FF400629A615DB10123A371284667
:1044080003B030BD4371FCF719FEBFE70125A56075
:10441800DDE72068FFF7A0FF012323710023A360D5
:10442800EBE70125EBE700BF4C0000200004005833
:104438000008005882B002461A4B1B68C3EBC3033E
:10444800C3F34C43642000FB03F30193019B4BB17E
:10445800019B013B0193144B9B6813F0020FF5D0AD
:10446800002001E0012090600F4B19730D4B1B6871
:10447800C3EBC303C3F34C43642101FB03F3019370
:10448800019B43B1019B013B0193074B9B6813F0D0
:10449800010FF5D001E001209060034BDB6802B00A
:1044A800704700BF4C0000200000015882B002464F
:1044B8001C4B1B68C3EBC303C3F34C43642000FBD2
:1044C80003F30193019B4BB1019B013B0193164BF5
:1044D8009B6813F0020FF5D0002001E001209060E6
:1044E800114B4FF0FF0C83F80CC00E4B1B68C3EB4D
:1044F800C303C3F34C434FF0640C0CFB03F3019369
:10450800019B43B1019B013B0193074B9B6813F04F
:10451800010FF5D001E001209060034BDB680B70C0
:1045280002B070474C0000200000015882B0134BC5
:104538001B6803EB4303C3F34B43642202FB03F3FF
:10454800019306E002238360012002B07047134202
:1045580012D00B4B5B6913F0040300D00123019ABE
:10456800002AEFD0019A013A0192054A526912F0E5
:104578000202ECD00122EAE70020E6E74C00002026
:104588000004005800B583B00379012B04D0FFF76D
:10459800CDFF03B05DF804FB0D4B1B6803EB430331
:1045A800C3F34F3301930B4AD2F8903023F40043FE
:1045B800C2F89030019B013B0193019B002BF9D17C
:1045C800044AD2F8903043F40043C2F89030DEE752
:1045D8004C000020000400582DE9F0410546807980
:1045E8005FFA80F8B8F1010F3ED10C4617461E4617
:1045F8006B79012B3BD001236B710223AB712846E9
:10460800FFF7C0FF1B4AD2F8903023F40043C2F8EA
:1046180090300D212846FFF70DFF210A2846FFF7A5
:1046280009FFE1B22846FFF705FF002405E0395DE0
:104638002846FFF7FFFE0134A4B2B442F7D30D4A6F
:10464800D2F8903043F40043C2F890302846FFF780
:104658006DFFAB680BB94FF000080123AB71002365
:104668006B714046BDE8F0814FF00208F9E74FF062
:104678000208F6E7000400582DE9F0410646807963
:104688005FFA80F8B8F1010F41D10C4615461F4674
:104698007379012B3ED0012373713046FFF772FF07
:1046A8001E4AD2F8903023F40043C2F890301D21FE
:1046B8003046FFF7BFFE210A3046FFF7BBFEE1B2E6
:1046C8003046FFF7B7FE00213046FFF7B3FE00245F
:1046D80006E029463046FFF7E9FE01350134A4B269
:1046E800BC42F6D30D4AD2F8903043F40043C2F8E6
:1046F80090303046FFF71AFFB3680BB94FF0000847
:104708000123B371002373714046BDE8F0814FF077
:104718000208F9E74FF00208F6E700BF0004005866
:104728002DE9F843054680795FFA80F9B9F1010F60
:1047380043D1884617461E466B79012B40D001238A
:104748006B712846FFF71EFFB8F1840F05D0B8F14A
:10475800940F02D000232B7101E001232B711A4A18
:10476800D2F8903023F40043C2F8903041462846EE
:10477800FFF760FE002405E0395D2846FFF75AFE82
:104788000134A4B2B442F7D30F4AD2F8903043F4BC
:104798000043C2F89030B8F1840F0AD1AB680BB966
:1047A8004FF000090123AB7100236B714846BDE847
:1047B800F8832846FFF7BAFEF0E74FF00209F5E75D
:1047C8004FF00209F2E700BF000400582DE9F0415C
:1047D800064680795FFA80F8B8F1010F39D10C46A6
:1047E80015461F467379012B36D001237371304665
:1047F800FFF7C8FE1A4AD2F8903023F40043C2F8F3
:10480800903021463046FFF715FE00213046FFF76D
:1048180011FE002406E029463046FFF747FE013521
:104828000134A4B2BC42F6D30D4AD2F8903043F416
:104838000043C2F890303046FFF778FEB3680BB9F2
:104848004FF000080123B371002373714046BDE89F
:10485800F0814FF00208F9E74FF00208F6E700BFD1
:104868000004005830B583B005460023ADF8043085
:10487800022301AA1221FFF7A9FF9DF804409DF821
:10488800053043EA042413F0010F26D114F0020F77
:1048980027D114F0040F28D114F0080F29D114F0EF
:1048A800100F2AD114F0200F2BD114F0400F2CD167
:1048B80014F0800F06D014F4807F2AD001212846F6
:1048C8000BF042FB14F4007F28D1022301AA1946F9
:1048D8002846FFF725FF03B030BD28460BF01CFB28
:1048E800D4E728460BF020FBD3E728460BF050FB13
:1048F800D2E728460BF054FBD1E728460BF058FBCB
:10490800D0E728460BF03CFBCFE728460BF014FB1A
:10491800CEE7002128460BF017FBD3E728460BF01B
:1049280025FBD2E72DE9F041054680795FFA80F84A
:10493800B8F1010F38D10C4617461E466B79012B8A
:1049480035D001236B712846FFF71CFE194AD2F8AF
:10495800903023F40043C2F890300E212846FFF728
:1049680069FD21462846FFF765FD002405E0395D0D
:104978002846FFF75FFD0134A4B2B442F7D30D4ACD
:10498800D2F8903043F40043C2F890302846FFF73D
:10499800CDFDAB680BB94FF000080123AB710023C4
:1049A8006B714046BDE8F0814FF00208F9E74FF01F
:1049B8000208F6E7000400582DE9F0410646807920
:1049C8005FFA80F8B8F1010F3DD10C4615461F4635
:1049D8007379012B3AD0012373713046FFF7D2FD6A
:1049E8001C4AD2F8903023F40043C2F890301E21BC
:1049F8003046FFF71FFD21463046FFF71BFD00211B
:104A08003046FFF717FD002406E029463046FFF739
:104A18004DFD01350134A4B2BC42F6D30D4AD2F89B
:104A2800903043F40043C2F890303046FFF77EFDE3
:104A3800B3680BB94FF000080123B37100237371F9
:104A48004046BDE8F0814FF00208F9E74FF0020850
:104A5800F6E700BF00040058026852E8003F23F060
:104A6800C00342E800310029F6D1026802F10803C8
:104A780053E8003F23F40003083242E800310029DC
:104A8800F3D12023C0F884307047026852E8003F11
:104A980023F4907342E800310029F6D1026802F14C
:104AA800080353E8003F23F0805323F00103083242
:104AB80042E800310029F1D1C36E012B06D0202332
:104AC800C0F888300023C36603677047026852E85D
:104AD800003F23F0100342E800310029F6D1EEE749
:104AE800D0F88430202B4CD110B5044600294AD088
:104AF800002A4AD090F88030012B48D0012380F852
:104B080080300165A0F85420A0F856200023C0F892
:104B18008C302123C0F88430836FF3B11D49D962EA
:104B2800836F1D491963836F1C495963836F002183
:104B380099630168134601F12802016D806FFDF742
:104B4800C7FF50B11023C4F88C30002384F880309C
:104B58002023C4F88430012012E0236840221A621E
:104B6800002384F88030226802F1080353E8003FEC
:104B780043F08003083242E800310029F3D10020D5
:104B880010BD022070470120FAE70120F8E7022053
:104B9800F6E700BFA94B0008174C0008234C000893
:104BA80008B50346806A1B681B6813F0200F18D1EC
:104BB8000023A0F85630026802F1080353E8003FCA
:104BC80023F08003083242E800310029F3D102685B
:104BD80052E8003F43F0400342E800310029F6D193
:104BE80008BDFCF797FDFBE708B5026852E8003FEF
:104BF80023F0400342E800310029F6D12023C0F811
:104C0800843000234367FCF785FD08BD704708B56D
:104C1800806AFFF7FBFF08BD704738B5846AD4F88F
:104C28008420D4F8885023689B6813F0800F01D043
:104C3800212A10D023689B6813F0400F01D0222D41
:104C480010D0D4F88C3043F01003C4F88C302046D0
:104C5800FFF7E2FF38BD0023A4F856302046FFF7DF
:104C6800FBFEE7E70023A4F85E302046FFF70DFFC0
:104C7800E7E708B5806A0023A0F85E30A0F8563050
:104C8800FFF7CAFF08BD704770B504460168CB69D5
:104C980008688D6840F60F021A4008D113F0200FFB
:104CA80005D010F0200F34D115F0805F31D12AB132
:104CB800954A2A4033D1954E304230D1E26E012ACE
:104CC80000F0C38013F4801F03D015F4800F40F068
:104CD8005B8113F0800F07D010F0800F40F05B81EC
:104CE80015F4000F40F0578113F0400F03D010F077
:104CF800400F40F0578113F4000F03D010F0804F9D
:104D080040F0548113F0807F02D00028C0F2528115
:104D180070BD236F002BFBD020469847F8E713F0AF
:104D2800010F09D010F4807F06D001260E62D4F856
:104D38008C103143C4F88C1013F0020F0BD015F00F
:104D4800010F08D0216802260E62D4F88C1041F0B9
:104D58000401C4F88C1013F0040F0BD015F0010FE8
:104D680008D0216804260E62D4F88C1041F00201A4
:104D7800C4F88C1013F0080F0BD010F0200F00D1DE
:104D88003AB1226808211162D4F88C200A43C4F889
:104D98008C2013F4006F0CD010F0806F09D02268BB
:104DA8004FF400611162D4F88C2042F02002C4F85C
:104DB8008C20D4F88C20002AAAD013F0200F09D018
:104DC80010F0200F02D115F0805F03D0236F0BB1D4
:104DD80020469847D4F88C2023689B6813F0400F2E
:104DE80002D112F0280F29D02046FFF74EFE236883
:104DF8009B6813F0400F1DD0226802F1080353E8A6
:104E0800003F23F04003083242E800310029F3D183
:104E1800E36F5BB13E4A9A63E06FFDF7DFFE00285F
:104E28003FF476AFE06F836B984771E72046FFF752
:104E3800F3FE6DE72046FFF7EFFE69E72046FFF730
:104E4800EBFE0023C4F88C3062E713F0100F3FF438
:104E580039AF10F0100F3FF435AF10230B62236801
:104E68009B6813F0400F55D0E26F13685B689BB2E4
:104E7800002B3FF44DAFB4F85C1099427FF648AF71
:104E8800A4F85E3013681B6813F0200F31D1226834
:104E980052E8003F23F4807342E800310029F6D13C
:104EA800226802F1080353E8003F23F001030832A7
:104EB80042E800310029F3D1226802F1080353E8DF
:104EC800003F23F04003083242E800310029F3D1C3
:104ED8002023C4F888300023E366226852E8003FA4
:104EE80023F0100342E800310029F6D1E06FFDF706
:104EF8003BFEB4F85C10B4F85E309BB2C91A89B2B4
:104F08002046FFF7C0FE03E701000010200100045F
:104F18007B4C0008B4F85C10B4F85E309BB2C91A38
:104F280089B2B4F85E309BB2002B3FF4F1AE002991
:104F38003FF4EEAE226852E8003F23F4907342E853
:104F480000300028F6D1226802F1080353E8003F38
:104F580023F0805323F00103083242E80030002890
:104F6800F1D12023C4F888300023E3662367226840
:104F780052E8003F23F0100342E800300028F6D141
:104F88002046FFF780FEC3E64FF480130B622046ED
:104F980000F00CFEBCE6636F002B3FF4B9AE204670
:104FA8009847B5E62046FFF71FFEB1E6204600F019
:104FB800FFFDADE6204600F0FAFDA9E608B5B0F819
:104FC8006030D0F88820222A05D00268936943F01F
:104FD8000803936108BD0268516ADBB2826D0B4019
:104FE8001370836D01338365B0F85E309BB2013B6B
:104FF8009BB2A0F85E30B0F85E309BB2002BE9D1CE
:10500800026852E8003F23F4907342E80031002917
:10501800F6D1026802F1080353E8003F23F00103C8
:10502800083242E800310029F3D12023C0F8883043
:1050380000230367C36E012B16D10023C3660268E1
:1050480052E8003F23F0100342E800310029F6D16E
:105058000368DA6912F0100F01D010221A62B0F852
:105068005C10FFF710FEB5E7FCF75CFBB2E708B58C
:10507800B0F86020D0F88830222B05D002689369F8
:1050880043F00803936108BD03685B6A816D1340B0
:105098000B80836D02338365B0F85E309BB2013BB1
:1050A8009BB2A0F85E30B0F85E309BB2002BEAD11C
:1050B800026852E8003F23F4907342E80031002967
:1050C800F6D1026802F1080353E8003F23F0010318
:1050D800083242E800310029F3D12023C0F8883093
:1050E80000230367C36E012B16D10023C366026831
:1050F80052E8003F23F0100342E800310029F6D1BE
:105108000368DA6912F0100F01D010221A62B0F8A1
:105118005C10FFF7B8FDB6E7FCF704FBB3E7000047
:105128002DE9F843B0F860600368DD69D3F80090B2
:10513800D3F80880D0F88820222A05D09A6942F04E
:1051480008029A61BDE8F8830446B0F8687008E080
:10515800D4F88C30002B4CD1B4F85E309BB2002BC5
:105168004ED0002F00F0878015F0200F00F08380CC
:105178002368596AF3B2A26D0B401370A36D013313
:10518800A365B4F85E309BB2013B9BB2A4F85E30D5
:105198002368DD6915F0070FDED015F0010F09D07F
:1051A80019F4807F06D001221A62D4F88C30134398
:1051B800C4F88C3015F0020F0BD018F0010F08D08E
:1051C800236802221A62D4F88C3043F00403C4F82E
:1051D8008C3015F0040FBBD018F0010FB8D023683D
:1051E80004221A62D4F88C3043F00203C4F88C30DD
:1051F800AEE72046FFF710FD0023C4F88C30ABE77C
:10520800226852E8003F23F4807342E80031002905
:10521800F6D1226802F1080353E8003F23F08053D7
:1052280023F00103083242E800310029F1D120239C
:10523800C4F8883000232367E36E012B03D020468F
:10524800FCF770FA8DE70023E366226852E8003F16
:1052580023F0100342E800310029F6D12368DA6907
:1052680012F0100F01D010221A62B4F85C10204618
:10527800FFF709FD75E7B4F85E309BB2002B3FF4E9
:1052880061AFB4F868209A427FF65CAF226802F1F9
:10529800080353E8003F23F08053083242E8003106
:1052A8000029F3D1054B2367226852E8003F43F0F9
:1052B800200342E800310029F6D143E7C54F000832
:1052C8002DE9F843B0F860600368DD69D3F8009011
:1052D800D3F80880D0F88820222A05D09A6942F0AD
:1052E80008029A61BDE8F8830446B0F8687008E0DF
:1052F800D4F88C30002B4BD1B4F85E309BB2002B25
:105308004DD0002F00F0868015F0200F00F082802D
:1053180023685B6AA26D33401380A36D0233A365D3
:10532800B4F85E309BB2013B9BB2A4F85E302368B0
:10533800DD6915F0070FDFD015F0010F09D019F45A
:10534800807F06D001221A62D4F88C301343C4F847
:105358008C3015F0020F0BD018F0010F08D023681D
:1053680002221A62D4F88C3043F00403C4F88C305B
:1053780015F0040FBCD018F0010FB9D0236804222F
:105388001A62D4F88C3043F00203C4F88C30AFE7CB
:105398002046FFF741FC0023C4F88C30ACE72268B4
:1053A80052E8003F23F4807342E800310029F6D127
:1053B800226802F1080353E8003F23F0805323F0EA
:1053C8000103083242E800310029F1D12023C4F852
:1053D800883000232367E36E012B03D02046FCF7B7
:1053E800A1F98EE70023E366226852E8003F23F024
:1053F800100342E800310029F6D12368DA6912F077
:10540800100F01D010221A62B4F85C102046FFF782
:105418003AFC76E7B4F85E309BB2002B3FF462AFFB
:10542800B4F868209A427FF65DAF226802F108035B
:1054380053E8003F23F08053083242E80031002946
:10544800F3D1064B2367226852E8003F43F020035C
:1054580042E800310029F6D144E700BF7750000840
:1054680070B50446016883680269134342691343AF
:10547800C269134308689D4A024013430B602268BF
:10548800536823F44053E1680B435360A1692268D1
:10549800974B9A4201D0236A1943936823F06E43CD
:1054A80023F430630B4393602268D36A23F00F031D
:1054B800616A0B43D36223688E4A93421CD08E4A9A
:1054C800934231D08A4A93424BD0102288498B426A
:1054D80068D0E069B0F5004F00F0A580082A00F216
:1054E8001F81DFE812F0D300F500D1001D01F8009C
:1054F8001D011D011D01FB004FF0B042D2F88820AC
:1055080002F0030242F44032A2F54032032A09D8DD
:10551800DFE802F002043C060122D7E70422D5E7BF
:105528000822D3E71022D1E74FF0B042D2F8882002
:1055380002F00C0242F44022A2F540220C2A0ED8B6
:10554800DFE802F0070D0D0D090D0D0D260D0D0DEF
:105558000B000022BAE70422B8E70822B6E71022B7
:10556800B4E74FF0B042D2F8882002F44062B2F5B6
:10557800006F0FD005D87AB1B2F5806F0ED1042232
:10558800A4E7B2F5406F0BD108229FE702229DE7FE
:1055980002229BE7022299E7002297E7102295E76B
:1055A800102293E7082A00F29C80DFE802F0089AAC
:1055B8003A9A379A9A9A05004FF4004004E0FEF7A9
:1055C8000FFB002800F08F80626A4C4B33F81220E2
:1055D800B0FBF2F3656805EB4501994200F294804F
:1055E800B3EB053F00F29280002633463146FBF7C5
:1055F80041F9090241EA106100026B08C0182A4605
:10560800334641F10001FBF735F9A0F540723C4BF8
:105618009A427DD82368D860304650E0FDF7FAFDFD
:10562800CFE73848D0E7082A74D8DFE802F0072720
:1056380005732A7373730B00324803E0FEF7D0FA40
:10564800002869D0626A2D4B33F81230B0FBF3F0B2
:105658006268530803EB4000B0FBF2F080B2A0F19F
:1056680010024FF6EF739A4258D820F00F03C0F398
:10567800420018432368D860002020E0FEF7C0FAF3
:10568800DEE7FDF7C7FDDBE71E4803E0FEF7A8FAF3
:10569800002847D0626A194B33F81230B0FBF3F098
:1056A800636800EB5300B0FBF3F080B2A0F1100286
:1056B8004FF6EF739A4237D82368D8600020012349
:1056C800A4F86A30A4F8683000232367636770BDC4
:1056D800FEF796FADCE7FDF79DFDD9E74FF40040A9
:1056E800D8E70120EBE70020E9E700BFF369FFCF27
:1056F8000080004000380140004400405C1301086D
:10570800FFFC0F000024F4000120D8E70120D6E7B1
:105718000120D4E70120D2E70020D0E70120CEE71E
:105728000120CCE70020CAE70120C8E7836A13F00C
:10573800010F06D00268536823F40033C16A0B4393
:105748005360836A13F0020F06D00268536823F48B
:105758008033016B0B435360836A13F0040F06D048
:105768000268536823F48023416B0B435360836AB8
:1057780013F0080F06D00268536823F40043816BC6
:105788000B435360836A13F0100F06D002689368C6
:1057980023F48053C16B0B439360836A13F0200F8B
:1057A80006D00268936823F40053016C0B4393609E
:1057B800836A13F0400F0AD00268536823F48013F9
:1057C800416C0B435360436CB3F5801F0BD0836A65
:1057D80013F0800F06D00268536823F40023C16CCD
:1057E8000B43536070470268536823F4C003816C0D
:1057F8000B435360EBE72DE9F84305460F46164681
:105808009946DDF820802C68E46937EA04030CBF68
:105818004FF0010C4FF0000CB44557D1B8F1FF3FE1
:10582800F1D0FBF7FBFCA0EB090040452FD8B8F1FD
:10583800000F2CD02B681A6812F0040FE3D0DA6935
:1058480012F4006FDFD04FF400621A622A6852E83F
:10585800003F23F4D07342E800310029F6D12A68CA
:1058680002F1080353E8003F23F00103083242E83D
:1058780000310029F3D12023C5F88430C5F88830D9
:10588800C5F88C30002385F8803003201FE02A6893
:1058980052E8003F23F4D07342E800310029F6D1E2
:1058A8002A6802F1080353E8003F23F00103083295
:1058B80042E800310029F3D12023C5F88430C5F827
:1058C8008830002385F88030032000E00020BDE800
:1058D800F88330B583B004460023C0F88C30FBF75A
:1058E8009DFC05462268126812F0080F0FD1236844
:1058F8001B6813F0040F18D12023C4F88430C4F8AF
:1059080088300020E06684F8800003B030BD6FF076
:105918007E430093034600224FF400112046FFF710
:105928006AFF0028E3D00320EFE76FF07E4300937F
:105938002B4600224FF480012046FFF75CFF002829
:10594800DAD00320E1E778B310B50446D0F8843004
:105958000BB32423C4F884302268136823F00103AE
:1059680013602046FFF77CFD012813D0A36ABBB95A
:105978002268536823F4904353602268936823F0A5
:105988002A0393602268136843F0010313602046DA
:10599800FFF79FFF10BD80F88030FBF7BFFDD8E709
:1059A8002046FFF7C3FEE3E70120704710B4816586
:1059B800A0F85C20A0F85E20002303678368B3F595
:1059C800805F06D0A3B9036973B9FF23A0F86030DC
:1059D80014E0036923B940F2FF13A0F860300DE02A
:1059E800FF23A0F8603009E07F23A0F8603005E0CD
:1059F800B3F1805F2DD00023A0F860300023C0F8F9
:105A08008C302223C0F88830016801F1080353E87C
:105A1800003F43F00103083141E80034002CF3D182
:105A2800436EB3F1005F1ED08368B3F5805F43D047
:105A3800244B0367002380F88030026852E8003F57
:105A480043F4907342E800310029F6D1002010BCDD
:105A5800704703691BB97F23A0F86030CEE73F2366
:105A6800A0F86030CAE7B0F868309342DCD88368A1
:105A7800B3F5805F1AD0144B0367002380F8803099
:105A8800026852E8003F43F4807342E8003100297D
:105A9800F6D1026802F1080353E8003F43F080534F
:105AA800083242E800310029F3D1CFE70369002B1F
:105AB800E1D1064B0367E0E70369002BB8D1044B3B
:105AC8000367B7E7C54F000829510008C952000805
